{
    "contractName": "EIP20Factory",
    "abi": [
        {
            "inputs": [
                {
                    "internalType": "uint256",
                    "name": "initialAmount",
                    "type": "uint256"
                },
                {
                    "internalType": "bytes32",
                    "name": "name",
                    "type": "bytes32"
                },
                {
                    "internalType": "uint8",
                    "name": "decimal",
                    "type": "uint8"
                },
                {
                    "internalType": "bytes32",
                    "name": "symbol",
                    "type": "bytes32"
                }
            ],
            "name": "createERC20",
            "outputs": [
                {
                    "internalType": "address",
                    "name": "",
                    "type": "address"
                }
            ],
            "stateMutability": "nonpayable",
            "type": "function"
        },
        {
            "inputs": [
                {
                    "internalType": "address",
                    "name": "",
                    "type": "address"
                },
                {
                    "internalType": "uint256",
                    "name": "",
                    "type": "uint256"
                }
            ],
            "name": "created",
            "outputs": [
                {
                    "internalType": "address",
                    "name": "",
                    "type": "address"
                }
            ],
            "stateMutability": "view",
            "type": "function"
        }
    ],
    "bytecode": "608060405234801561001057600080fd5b50610b03806100206000396000f3fe608060405234801561001057600080fd5b50600436106100365760003560e01c80633587634e1461003b5780635f8dead314610089575b600080fd5b61006d6004803603608081101561005157600080fd5b5080359060208101359060ff60408201351690606001356100b5565b604080516001600160a01b039092168252519081900360200190f35b61006d6004803603604081101561009f57600080fd5b506001600160a01b0381351690602001356101ba565b600080848387866040516100c8906101ef565b938452602084019290925260408084019190915260ff90911660608301525190819003608001906000f080158015610104573d6000803e3d6000fd5b503360008181526020818152604080832080546001810182559084528284200180546001600160a01b0319166001600160a01b038716908117909155815163a9059cbb60e01b81526004810195909552602485018c905290519495509363a9059cbb93604480820194918390030190829087803b15801561018457600080fd5b505af1158015610198573d6000803e3d6000fd5b505050506040513d60208110156101ae57600080fd5b50909695505050505050565b600060205281600052604060002081815481106101d357fe5b6000918252602090912001546001600160a01b03169150829050565b6108d1806101fd8339019056fe608060405234801561001057600080fd5b506040516108d13803806108d18339818101604052608081101561003357600080fd5b5080516020808301516040808501516060909501516003949094556004919091556005805460ff90941660ff199094169390931790925560028390553360009081529081905220556108478061008a6000396000f3fe608060405234801561001057600080fd5b50600436106100a95760003560e01c80633950935111610071578063395093511461016457806370a082311461019057806395d89b41146101b6578063a457c2d7146101be578063a9059cbb146101ea578063dd62ed3e14610216576100a9565b806306fdde03146100ae578063095ea7b3146100c857806318160ddd1461010857806323b872dd14610110578063313ce56714610146575b600080fd5b6100b6610244565b60408051918252519081900360200190f35b6100f4600480360360408110156100de57600080fd5b506001600160a01b03813516906020013561024a565b604080519115158252519081900360200190f35b6100b6610261565b6100f46004803603606081101561012657600080fd5b506001600160a01b03813581169160208101359091169060400135610267565b61014e6102d3565b6040805160ff9092168252519081900360200190f35b6100f46004803603604081101561017a57600080fd5b506001600160a01b0381351690602001356102dc565b6100b6600480360360208110156101a657600080fd5b50356001600160a01b0316610318565b6100b6610333565b6100f4600480360360408110156101d457600080fd5b506001600160a01b038135169060200135610339565b6100f46004803603604081101561020057600080fd5b506001600160a01b03813516906020013561038e565b6100b66004803603604081101561022c57600080fd5b506001600160a01b038135811691602001351661039b565b60035490565b60006102573384846103c6565b5060015b92915050565b60025490565b60006102748484846104b2565b6102cc84336102c78560405180606001604052806028815260200161077c602891396001600160a01b038a166000908152600160209081526040808320338452909152902054919063ffffffff61061916565b6103c6565b9392505050565b60055460ff1690565b3360008181526001602090815260408083206001600160a01b038716845290915281205490916102579185906102c7908663ffffffff6106b016565b6001600160a01b031660009081526020819052604090205490565b60045490565b600061025733846102c7856040518060600160405280602581526020016107ed602591393360009081526001602090815260408083206001600160a01b038d168452909152902054919063ffffffff61061916565b600061025b3384846104b2565b6001600160a01b03918216600090815260016020908152604080832093909416825291909152205490565b6001600160a01b03831661040b5760405162461bcd60e51b81526004018080602001828103825260248152602001806107c96024913960400191505060405180910390fd5b6001600160a01b0382166104505760405162461bcd60e51b81526004018080602001828103825260228152602001806107336022913960400191505060405180910390fd5b6001600160a01b03808416600081815260016020908152604080832094871680845294825291829020859055815185815291517f8c5be1e5ebec7d5bd14f71427d1e84f3dd0314c0f7b2291e5b200ac8c7c3b9259281900390910190a3505050565b6001600160a01b0383166104f75760405162461bcd60e51b81526004018080602001828103825260258152602001806107a46025913960400191505060405180910390fd5b6001600160a01b03821661053c5760405162461bcd60e51b81526004018080602001828103825260238152602001806107106023913960400191505060405180910390fd5b61054783838361070a565b61058a81604051806060016040528060278152602001610755602791396001600160a01b038616600090815260208190526040902054919063ffffffff61061916565b6001600160a01b0380851660009081526020819052604080822093909355908416815220546105bf908263ffffffff6106b016565b6001600160a01b038084166000818152602081815260409182902094909455805185815290519193928716927fddf252ad1be2c89b69c2b068fc378daa952ba7f163c4a11628f55a4df523b3ef92918290030190a3505050565b600081848411156106a85760405162461bcd60e51b81526004018080602001828103825283818151815260200191508051906020019080838360005b8381101561066d578181015183820152602001610655565b50505050905090810190601f16801561069a5780820380516001836020036101000a031916815260200191505b509250505060405180910390fd5b505050900390565b6000828201838110156102cc576040805162461bcd60e51b815260206004820152601b60248201527f536166654d6174683a206164646974696f6e206f766572666c6f770000000000604482015290519081900360640190fd5b50505056fe45524332303a207472616e7366657220746f20746865207a65726f206164647265737345524332303a20617070726f766520746f20746865207a65726f206164647265737345524332303a207472616e7366657220616d6f756e742065786563656564732062616c616e636545524332303a207472616e7366657220616d6f756e74206578636565647320616c6c6f77616e636545524332303a207472616e736665722066726f6d20746865207a65726f206164647265737345524332303a20617070726f76652066726f6d20746865207a65726f206164647265737345524332303a2064656372656174656420616c6c6f77616e63652062656c6f77207a65726fa26469706673582212208f8543e2f784ca645d17e6ba5e827c808b8477f542fc79156f4d6a11d52ad8fc64736f6c63430006090033a2646970667358221220d9b4c198bc0336f85bd6158f0237bd4303b6f03016cbd66ab7a25e4b172b31ae64736f6c63430006090033",
    "sourcePath": "/Users/shibaoxu/dev/learning/dapp-sample/contracts/contracts/token/ERC20Factory.sol",
    "compiler": {
        "name": "solc",
        "version": "0.6.9+commit.3e3065ac"
    },
    "functionHashes": {
        "createERC20(uint256,bytes32,uint8,bytes32)": "3587634e",
        "created(address,uint256)": "5f8dead3"
    },
    "gasEstimates": {
        "creation": {
            "codeDepositCost": "563800",
            "executionCost": "600",
            "totalCost": "564400"
        },
        "external": {
            "createERC20(uint256,bytes32,uint8,bytes32)": "infinite",
            "created(address,uint256)": "2071"
        },
        "internal": {
            "_codeAt(address)": "infinite"
        }
    }
}