{
  "contractName": "DAX",
  "abi": [
    {
      "inputs": [],
      "stateMutability": "nonpayable",
      "type": "constructor"
    },
    {
      "anonymous": false,
      "inputs": [
        {
          "indexed": false,
          "internalType": "bytes32",
          "name": "_type",
          "type": "bytes32"
        },
        {
          "indexed": true,
          "internalType": "address",
          "name": "from",
          "type": "address"
        },
        {
          "indexed": true,
          "internalType": "address",
          "name": "to",
          "type": "address"
        },
        {
          "indexed": false,
          "internalType": "bytes32",
          "name": "tokenSymbol",
          "type": "bytes32"
        },
        {
          "indexed": false,
          "internalType": "uint256",
          "name": "quantity",
          "type": "uint256"
        }
      ],
      "name": "TransferOrder",
      "type": "event"
    },
    {
      "stateMutability": "nonpayable",
      "type": "fallback"
    },
    {
      "inputs": [
        {
          "internalType": "uint256",
          "name": "",
          "type": "uint256"
        }
      ],
      "name": "buyOrderIndexById",
      "outputs": [
        {
          "internalType": "uint256",
          "name": "",
          "type": "uint256"
        }
      ],
      "stateMutability": "view",
      "type": "function"
    },
    {
      "inputs": [
        {
          "internalType": "uint256",
          "name": "",
          "type": "uint256"
        }
      ],
      "name": "buyOrders",
      "outputs": [
        {
          "internalType": "uint256",
          "name": "id",
          "type": "uint256"
        },
        {
          "internalType": "address",
          "name": "owner",
          "type": "address"
        },
        {
          "internalType": "bytes32",
          "name": "orderType",
          "type": "bytes32"
        },
        {
          "internalType": "bytes32",
          "name": "firstSymbol",
          "type": "bytes32"
        },
        {
          "internalType": "bytes32",
          "name": "secondSymbol",
          "type": "bytes32"
        },
        {
          "internalType": "uint256",
          "name": "quantiry",
          "type": "uint256"
        },
        {
          "internalType": "uint256",
          "name": "price",
          "type": "uint256"
        },
        {
          "internalType": "uint256",
          "name": "timestamp",
          "type": "uint256"
        },
        {
          "internalType": "enum DAX.OrderState",
          "name": "state",
          "type": "uint8"
        }
      ],
      "stateMutability": "view",
      "type": "function"
    },
    {
      "inputs": [
        {
          "internalType": "uint256",
          "name": "",
          "type": "uint256"
        }
      ],
      "name": "closedOrder",
      "outputs": [
        {
          "internalType": "uint256",
          "name": "id",
          "type": "uint256"
        },
        {
          "internalType": "address",
          "name": "owner",
          "type": "address"
        },
        {
          "internalType": "bytes32",
          "name": "orderType",
          "type": "bytes32"
        },
        {
          "internalType": "bytes32",
          "name": "firstSymbol",
          "type": "bytes32"
        },
        {
          "internalType": "bytes32",
          "name": "secondSymbol",
          "type": "bytes32"
        },
        {
          "internalType": "uint256",
          "name": "quantiry",
          "type": "uint256"
        },
        {
          "internalType": "uint256",
          "name": "price",
          "type": "uint256"
        },
        {
          "internalType": "uint256",
          "name": "timestamp",
          "type": "uint256"
        },
        {
          "internalType": "enum DAX.OrderState",
          "name": "state",
          "type": "uint8"
        }
      ],
      "stateMutability": "view",
      "type": "function"
    },
    {
      "inputs": [
        {
          "internalType": "address",
          "name": "",
          "type": "address"
        }
      ],
      "name": "escrowByUserAddress",
      "outputs": [
        {
          "internalType": "address",
          "name": "",
          "type": "address"
        }
      ],
      "stateMutability": "view",
      "type": "function"
    },
    {
      "inputs": [
        {
          "internalType": "bytes32",
          "name": "",
          "type": "bytes32"
        }
      ],
      "name": "isTokenSymbolWhitelisted",
      "outputs": [
        {
          "internalType": "bool",
          "name": "",
          "type": "bool"
        }
      ],
      "stateMutability": "view",
      "type": "function"
    },
    {
      "inputs": [
        {
          "internalType": "address",
          "name": "",
          "type": "address"
        }
      ],
      "name": "isTokenWhitelisted",
      "outputs": [
        {
          "internalType": "bool",
          "name": "",
          "type": "bool"
        }
      ],
      "stateMutability": "view",
      "type": "function"
    },
    {
      "inputs": [
        {
          "internalType": "uint256",
          "name": "",
          "type": "uint256"
        }
      ],
      "name": "orderById",
      "outputs": [
        {
          "internalType": "uint256",
          "name": "id",
          "type": "uint256"
        },
        {
          "internalType": "address",
          "name": "owner",
          "type": "address"
        },
        {
          "internalType": "bytes32",
          "name": "orderType",
          "type": "bytes32"
        },
        {
          "internalType": "bytes32",
          "name": "firstSymbol",
          "type": "bytes32"
        },
        {
          "internalType": "bytes32",
          "name": "secondSymbol",
          "type": "bytes32"
        },
        {
          "internalType": "uint256",
          "name": "quantiry",
          "type": "uint256"
        },
        {
          "internalType": "uint256",
          "name": "price",
          "type": "uint256"
        },
        {
          "internalType": "uint256",
          "name": "timestamp",
          "type": "uint256"
        },
        {
          "internalType": "enum DAX.OrderState",
          "name": "state",
          "type": "uint8"
        }
      ],
      "stateMutability": "view",
      "type": "function"
    },
    {
      "inputs": [],
      "name": "orderIdCounters",
      "outputs": [
        {
          "internalType": "uint256",
          "name": "",
          "type": "uint256"
        }
      ],
      "stateMutability": "view",
      "type": "function"
    },
    {
      "inputs": [],
      "name": "owner",
      "outputs": [
        {
          "internalType": "address",
          "name": "",
          "type": "address"
        }
      ],
      "stateMutability": "view",
      "type": "function"
    },
    {
      "inputs": [
        {
          "internalType": "uint256",
          "name": "",
          "type": "uint256"
        }
      ],
      "name": "sellOrder",
      "outputs": [
        {
          "internalType": "uint256",
          "name": "id",
          "type": "uint256"
        },
        {
          "internalType": "address",
          "name": "owner",
          "type": "address"
        },
        {
          "internalType": "bytes32",
          "name": "orderType",
          "type": "bytes32"
        },
        {
          "internalType": "bytes32",
          "name": "firstSymbol",
          "type": "bytes32"
        },
        {
          "internalType": "bytes32",
          "name": "secondSymbol",
          "type": "bytes32"
        },
        {
          "internalType": "uint256",
          "name": "quantiry",
          "type": "uint256"
        },
        {
          "internalType": "uint256",
          "name": "price",
          "type": "uint256"
        },
        {
          "internalType": "uint256",
          "name": "timestamp",
          "type": "uint256"
        },
        {
          "internalType": "enum DAX.OrderState",
          "name": "state",
          "type": "uint8"
        }
      ],
      "stateMutability": "view",
      "type": "function"
    },
    {
      "inputs": [
        {
          "internalType": "bytes32",
          "name": "",
          "type": "bytes32"
        }
      ],
      "name": "tokenAddressBySymbol",
      "outputs": [
        {
          "internalType": "address",
          "name": "",
          "type": "address"
        }
      ],
      "stateMutability": "view",
      "type": "function"
    },
    {
      "inputs": [
        {
          "internalType": "bytes32",
          "name": "",
          "type": "bytes32"
        },
        {
          "internalType": "uint256",
          "name": "",
          "type": "uint256"
        }
      ],
      "name": "tokenPairs",
      "outputs": [
        {
          "internalType": "bytes32",
          "name": "",
          "type": "bytes32"
        }
      ],
      "stateMutability": "view",
      "type": "function"
    },
    {
      "inputs": [
        {
          "internalType": "uint256",
          "name": "",
          "type": "uint256"
        }
      ],
      "name": "users",
      "outputs": [
        {
          "internalType": "address",
          "name": "",
          "type": "address"
        }
      ],
      "stateMutability": "view",
      "type": "function"
    },
    {
      "inputs": [
        {
          "internalType": "uint256",
          "name": "",
          "type": "uint256"
        }
      ],
      "name": "whitelistedTokenSymbols",
      "outputs": [
        {
          "internalType": "bytes32",
          "name": "",
          "type": "bytes32"
        }
      ],
      "stateMutability": "view",
      "type": "function"
    },
    {
      "inputs": [
        {
          "internalType": "uint256",
          "name": "",
          "type": "uint256"
        }
      ],
      "name": "whitelistedTokens",
      "outputs": [
        {
          "internalType": "address",
          "name": "",
          "type": "address"
        }
      ],
      "stateMutability": "view",
      "type": "function"
    },
    {
      "inputs": [
        {
          "internalType": "bytes32",
          "name": "_symbol",
          "type": "bytes32"
        },
        {
          "internalType": "address",
          "name": "_token",
          "type": "address"
        },
        {
          "internalType": "bytes32[]",
          "name": "_tokenPairSymbols",
          "type": "bytes32[]"
        },
        {
          "internalType": "address[]",
          "name": "_tokenPairAddress",
          "type": "address[]"
        }
      ],
      "name": "whitelistToken",
      "outputs": [],
      "stateMutability": "nonpayable",
      "type": "function"
    },
    {
      "inputs": [
        {
          "internalType": "address",
          "name": "_token",
          "type": "address"
        },
        {
          "internalType": "uint256",
          "name": "_amount",
          "type": "uint256"
        }
      ],
      "name": "depositTokens",
      "outputs": [],
      "stateMutability": "nonpayable",
      "type": "function"
    },
    {
      "inputs": [
        {
          "internalType": "address",
          "name": "_token",
          "type": "address"
        },
        {
          "internalType": "uint256",
          "name": "_amount",
          "type": "uint256"
        }
      ],
      "name": "extractTokens",
      "outputs": [],
      "stateMutability": "nonpayable",
      "type": "function"
    },
    {
      "inputs": [
        {
          "internalType": "bytes32",
          "name": "_type",
          "type": "bytes32"
        },
        {
          "internalType": "bytes32",
          "name": "_firstSymbol",
          "type": "bytes32"
        },
        {
          "internalType": "bytes32",
          "name": "_secondSymbol",
          "type": "bytes32"
        },
        {
          "internalType": "uint256",
          "name": "_quantity",
          "type": "uint256"
        }
      ],
      "name": "marketOrder",
      "outputs": [],
      "stateMutability": "nonpayable",
      "type": "function"
    },
    {
      "inputs": [
        {
          "internalType": "bytes32",
          "name": "_type",
          "type": "bytes32"
        },
        {
          "internalType": "bytes32",
          "name": "_firstSymbol",
          "type": "bytes32"
        },
        {
          "internalType": "bytes32",
          "name": "_secondSymbol",
          "type": "bytes32"
        },
        {
          "internalType": "uint256",
          "name": "_quantity",
          "type": "uint256"
        },
        {
          "internalType": "uint256",
          "name": "_pricePerToken",
          "type": "uint256"
        }
      ],
      "name": "limitOrder",
      "outputs": [],
      "stateMutability": "nonpayable",
      "type": "function"
    },
    {
      "inputs": [
        {
          "internalType": "bytes32",
          "name": "_type",
          "type": "bytes32"
        }
      ],
      "name": "sortIdsByPrice",
      "outputs": [
        {
          "internalType": "uint256[]",
          "name": "",
          "type": "uint256[]"
        }
      ],
      "stateMutability": "view",
      "type": "function"
    },
    {
      "inputs": [
        {
          "internalType": "bytes32",
          "name": "_firstSymbol",
          "type": "bytes32"
        },
        {
          "internalType": "bytes32",
          "name": "_secondSymbol",
          "type": "bytes32"
        }
      ],
      "name": "checkValidPair",
      "outputs": [
        {
          "internalType": "bool",
          "name": "",
          "type": "bool"
        }
      ],
      "stateMutability": "view",
      "type": "function"
    },
    {
      "inputs": [
        {
          "internalType": "bytes32",
          "name": "_token",
          "type": "bytes32"
        }
      ],
      "name": "getTokenPairs",
      "outputs": [
        {
          "internalType": "bytes32[]",
          "name": "",
          "type": "bytes32[]"
        }
      ],
      "stateMutability": "view",
      "type": "function"
    }
  ],
  "bytecode": "0x608060405234801561001057600080fd5b5033600460006101000a81548173ffffffffffffffffffffffffffffffffffffffff021916908373ffffffffffffffffffffffffffffffffffffffff1602179055506110cd806100616000396000f3fe608060405234801561001057600080fd5b50600436106101515760003560e01c8063877f4c53116100c35780639a0aac811161007c5780639a0aac8114610a07578063a4d515ae14610a49578063ab42950e14610a95578063b5af090f14610ad7578063f0512c7814610b33578063fc5923d614610b8357610152565b8063877f4c5314610700578063887083ab146107b45780638d77eba5146108375780638da5cb5b146108eb57806393ef25e71461093557806397514d901461095357610152565b80632a69d0a8116101155780632a69d0a81461035157806335cea288146104c7578063365b98b21461057b57806366168bd7146105e957806384b8b6811461063757806384d2e770146106ba57610152565b80631008ed4b14610157578063145bd99c146101c557806314cc25e8146102115780631fd36a261461025f5780632154bc44146102e357610152565b5b600080fd5b6101836004803603602081101561016d57600080fd5b8101908080359060200190929190505050610bd9565b604051808273ffffffffffffffffffffffffffffffffffffffff1673ffffffffffffffffffffffffffffffffffffffff16815260200191505060405180910390f35b6101fb600480360360408110156101db57600080fd5b810190808035906020019092919080359060200190929190505050610c0c565b6040518082815260200191505060405180910390f35b61025d6004803603604081101561022757600080fd5b81019080803573ffffffffffffffffffffffffffffffffffffffff16906020019092919080359060200190929190505050610c3a565b005b6102a16004803603602081101561027557600080fd5b81019080803573ffffffffffffffffffffffffffffffffffffffff169060200190929190505050610c3e565b604051808273ffffffffffffffffffffffffffffffffffffffff1673ffffffffffffffffffffffffffffffffffffffff16815260200191505060405180910390f35b61030f600480360360208110156102f957600080fd5b8101908080359060200190929190505050610c71565b604051808273ffffffffffffffffffffffffffffffffffffffff1673ffffffffffffffffffffffffffffffffffffffff16815260200191505060405180910390f35b6104c56004803603608081101561036757600080fd5b8101908080359060200190929190803573ffffffffffffffffffffffffffffffffffffffff169060200190929190803590602001906401000000008111156103ae57600080fd5b8201836020820111156103c057600080fd5b803590602001918460208302840111640100000000831117156103e257600080fd5b919080806020026020016040519081016040528093929190818152602001838360200280828437600081840152601f19601f8201169050808301925050505050505091929192908035906020019064010000000081111561044257600080fd5b82018360208201111561045457600080fd5b8035906020019184602083028401116401000000008311171561047657600080fd5b919080806020026020016040519081016040528093929190818152602001838360200280828437600081840152601f19601f820116905080830192505050505050509192919290505050610cad565b005b6104f3600480360360208110156104dd57600080fd5b8101908080359060200190929190505050610d59565b604051808a81526020018973ffffffffffffffffffffffffffffffffffffffff1673ffffffffffffffffffffffffffffffffffffffff16815260200188815260200187815260200186815260200185815260200184815260200183815260200182600181111561055f57fe5b60ff168152602001995050505050505050505060405180910390f35b6105a76004803603602081101561059157600080fd5b8101908080359060200190929190505050610de1565b604051808273ffffffffffffffffffffffffffffffffffffffff1673ffffffffffffffffffffffffffffffffffffffff16815260200191505060405180910390f35b610635600480360360408110156105ff57600080fd5b81019080803573ffffffffffffffffffffffffffffffffffffffff16906020019092919080359060200190929190505050610e1d565b005b6106636004803603602081101561064d57600080fd5b8101908080359060200190929190505050610e21565b6040518080602001828103825283818151815260200191508051906020019060200280838360005b838110156106a657808201518184015260208101905061068b565b505050509050019250505060405180910390f35b6106e6600480360360208110156106d057600080fd5b8101908080359060200190929190505050610e28565b604051808215151515815260200191505060405180910390f35b61072c6004803603602081101561071657600080fd5b8101908080359060200190929190505050610e48565b604051808a81526020018973ffffffffffffffffffffffffffffffffffffffff1673ffffffffffffffffffffffffffffffffffffffff16815260200188815260200187815260200186815260200185815260200184815260200183815260200182600181111561079857fe5b60ff168152602001995050505050505050505060405180910390f35b6107e0600480360360208110156107ca57600080fd5b8101908080359060200190929190505050610ed0565b6040518080602001828103825283818151815260200191508051906020019060200280838360005b83811015610823578082015181840152602081019050610808565b505050509050019250505060405180910390f35b6108636004803603602081101561084d57600080fd5b8101908080359060200190929190505050610ed7565b604051808a81526020018973ffffffffffffffffffffffffffffffffffffffff1673ffffffffffffffffffffffffffffffffffffffff1681526020018881526020018781526020018681526020018581526020018481526020018381526020018260018111156108cf57fe5b60ff168152602001995050505050505050505060405180910390f35b6108f3610f52565b604051808273ffffffffffffffffffffffffffffffffffffffff1673ffffffffffffffffffffffffffffffffffffffff16815260200191505060405180910390f35b61093d610f78565b6040518082815260200191505060405180910390f35b61097f6004803603602081101561096957600080fd5b8101908080359060200190929190505050610f7e565b604051808a81526020018973ffffffffffffffffffffffffffffffffffffffff1673ffffffffffffffffffffffffffffffffffffffff1681526020018881526020018781526020018681526020018581526020018481526020018381526020018260018111156109eb57fe5b60ff168152602001995050505050505050505060405180910390f35b610a3360048036036020811015610a1d57600080fd5b8101908080359060200190929190505050611006565b6040518082815260200191505060405180910390f35b610a9360048036036080811015610a5f57600080fd5b810190808035906020019092919080359060200190929190803590602001909291908035906020019092919050505061101e565b005b610ac160048036036020811015610aab57600080fd5b8101908080359060200190929190505050611024565b6040518082815260200191505060405180910390f35b610b1960048036036020811015610aed57600080fd5b81019080803573ffffffffffffffffffffffffffffffffffffffff169060200190929190505050611045565b604051808215151515815260200191505060405180910390f35b610b6960048036036040811015610b4957600080fd5b810190808035906020019092919080359060200190929190505050611065565b604051808215151515815260200191505060405180910390f35b610bd7600480360360a0811015610b9957600080fd5b81019080803590602001909291908035906020019092919080359060200190929190803590602001909291908035906020019092919050505061106d565b005b600b6020528060005260406000206000915054906101000a900473ffffffffffffffffffffffffffffffffffffffff1681565b600a6020528160005260406000208181548110610c2557fe5b90600052602060002001600091509150505481565b5050565b600e6020528060005260406000206000915054906101000a900473ffffffffffffffffffffffffffffffffffffffff1681565b60058181548110610c7e57fe5b906000526020600020016000915054906101000a900473ffffffffffffffffffffffffffffffffffffffff1681565b600460009054906101000a900473ffffffffffffffffffffffffffffffffffffffff1673ffffffffffffffffffffffffffffffffffffffff163373ffffffffffffffffffffffffffffffffffffffff1614610d53576040517f08c379a00000000000000000000000000000000000000000000000000000000081526004018080602001828103825260238152602001806110756023913960400191505060405180910390fd5b50505050565b60008181548110610d6657fe5b90600052602060002090600902016000915090508060000154908060010160009054906101000a900473ffffffffffffffffffffffffffffffffffffffff16908060020154908060030154908060040154908060050154908060060154908060070154908060080160009054906101000a900460ff16905089565b60078181548110610dee57fe5b906000526020600020016000915054906101000a900473ffffffffffffffffffffffffffffffffffffffff1681565b5050565b6060919050565b60096020528060005260406000206000915054906101000a900460ff1681565b60028181548110610e5557fe5b90600052602060002090600902016000915090508060000154908060010160009054906101000a900473ffffffffffffffffffffffffffffffffffffffff16908060020154908060030154908060040154908060050154908060060154908060070154908060080160009054906101000a900460ff16905089565b6060919050565b600c6020528060005260406000206000915090508060000154908060010160009054906101000a900473ffffffffffffffffffffffffffffffffffffffff16908060020154908060030154908060040154908060050154908060060154908060070154908060080160009054906101000a900460ff16905089565b600460009054906101000a900473ffffffffffffffffffffffffffffffffffffffff1681565b60035481565b60018181548110610f8b57fe5b90600052602060002090600902016000915090508060000154908060010160009054906101000a900473ffffffffffffffffffffffffffffffffffffffff16908060020154908060030154908060040154908060050154908060060154908060070154908060080160009054906101000a900460ff16905089565b600d6020528060005260406000206000915090505481565b50505050565b6006818154811061103157fe5b906000526020600020016000915090505481565b60086020528060005260406000206000915054906101000a900460ff1681565b600092915050565b505050505056fee58faae69c896f776e6572e6898de58fafe4bba5e8b083e794a8e6ada4e587bde695b0a2646970667358221220e87738f64298026f9ca583ad4647b9722a5d0ff1d4f4948daae7f1964830224464736f6c634300060b0033",
  "immutableReferences": {},
  "source": "// SPDX-License-Identifier: MIT\npragma solidity >=0.4.21 <0.7.0;\nimport \"./Escrow.sol\";\n\n// interface IERC20 {\n//     function transfer(address to, uint256 value) external returns (bool);\n//     function approve(address spender, uint256 value) external returns (bool);\n//     function transferFrom(address from, address to, uint256 value) external returns (bool);\n//     function totalSupply() external view returns (uint256);\n//     function balanceOf(address who) external view returns (uint256);\n//     function allowance(address owner, address spender) external view returns (uint256);\n//     event Transfer(address indexed from, address indexed to, uint256 value);\n//     event Approval(address indexed owner, address indexed spender, uint256 value);\n// }\ncontract DAX {\n    event TransferOrder(\n        bytes32 _type,\n        address indexed from,\n        address indexed to,\n        bytes32 tokenSymbol,\n        uint256 quantity\n    );\n\n    enum OrderState {OPEN, CLOSED}\n\n    struct Order {\n        uint256 id;\n        address owner;\n        bytes32 orderType;\n        bytes32 firstSymbol;\n        bytes32 secondSymbol;\n        uint256 quantiry;\n        uint256 price;\n        uint256 timestamp;\n        OrderState state;\n    }\n\n    Order[] public buyOrders;\n    Order[] public sellOrder;\n    Order[] public closedOrder;\n\n    uint256 public orderIdCounters;\n    address public owner;\n    address[] public whitelistedTokens;\n    bytes32[] public whitelistedTokenSymbols;\n    address[] public users;\n\n    mapping(address => bool) public isTokenWhitelisted;\n    mapping(bytes32 => bool) public isTokenSymbolWhitelisted;\n    mapping(bytes32 => bytes32[]) public tokenPairs; //A token symbol pair made of 'FIRST' => 'SECOND\n    mapping(bytes32 => address) public tokenAddressBySymbol; //根据Token Symbol获得Token合约地址\n    mapping(uint256 => Order) public orderById;\n    mapping(uint256 => uint256) public buyOrderIndexById;\n    mapping(address => address) public escrowByUserAddress; //用户的资金托管合约地址\n\n    modifier onlyOwner {\n        require(msg.sender == owner, \"只有owner才可以调用此函数\");\n        _;\n    }\n\n    fallback() external {\n        revert();\n    }\n\n    constructor() public {\n        owner = msg.sender;\n    }\n\n    /// @notice 只有把token加入到白名单才能进行交易\n    /// @param _symbol Token符号，例如‘TOK'\n    /// @param _token 要加入到白名单的Token合约地址，例如’TOK‘的合约地址\n    /// @param _tokenPairSymbols 要加入到白名单的Token对，如果此参数为['BAT', 'HYDRO'], 则会被转化为['TOK', 'BAT'],['TOK', 'HYDRO']\n    /// @param _tokenPairAddress token对所对应的token合约地址\n    function whitelistToken(\n        bytes32 _symbol,\n        address _token,\n        bytes32[] memory _tokenPairSymbols,\n        address[] memory _tokenPairAddress\n    ) public onlyOwner {}\n\n    /// @notice 把token存入到账户对应的资金托管合约，用户必须先同意\n    /// @param _token token的合约地址\n    /// @param _amount token数量\n    function depositTokens(address _token, uint256 _amount) public {}\n\n    /// @notice 从个人资金托管合约中取出token\n    function extractTokens(address _token, uint256 _amount) public {}\n\n    /// @notice 创建一个市价订单\n    /// @param _type 订单买卖方向， 'buy'或者'sell'\n    /// @param _firstSymbol 要买或者卖的token符号\n    /// @param _secondSymbol 结算的token符号\n    /// @param _quantity 数量\n    function marketOrder(\n        bytes32 _type,\n        bytes32 _firstSymbol,\n        bytes32 _secondSymbol,\n        uint256 _quantity\n    ) public {}\n\n    /// @notice 创建一个限价订单\n    function limitOrder(\n        bytes32 _type,\n        bytes32 _firstSymbol,\n        bytes32 _secondSymbol,\n        uint256 _quantity,\n        uint256 _pricePerToken\n    ) public {}\n\n    function sortIdsByPrice(bytes32 _type) public view returns (uint256[] memory){}\n\n    function checkValidPair(bytes32 _firstSymbol, bytes32 _secondSymbol) public view returns (bool){}\n\n    function getTokenPairs(bytes32 _token) public view returns(bytes32[] memory){}\n}\n",
  "sourcePath": "/Users/shibaoxu/dev/learning/dapp-sample/contracts/contracts/DAX.sol",
  "compiler": {
    "name": "solc",
    "version": "0.6.11+commit.5ef660b1.Emscripten.clang"
  },
  "schemaVersion": "3.2.2",
  "updatedAt": "2020-07-10T10:34:29.112Z",
  "devdoc": {
    "kind": "dev",
    "methods": {
      "depositTokens(address,uint256)": {
        "params": {
          "_amount": "token数量",
          "_token": "token的合约地址"
        }
      },
      "marketOrder(bytes32,bytes32,bytes32,uint256)": {
        "params": {
          "_firstSymbol": "要买或者卖的token符号",
          "_quantity": "数量",
          "_secondSymbol": "结算的token符号",
          "_type": "订单买卖方向， 'buy'或者'sell'"
        }
      },
      "whitelistToken(bytes32,address,bytes32[],address[])": {
        "params": {
          "_symbol": "Token符号，例如‘TOK'",
          "_token": "要加入到白名单的Token合约地址，例如’TOK‘的合约地址",
          "_tokenPairAddress": "token对所对应的token合约地址",
          "_tokenPairSymbols": "要加入到白名单的Token对，如果此参数为['BAT', 'HYDRO'], 则会被转化为['TOK', 'BAT'],['TOK', 'HYDRO']"
        }
      }
    },
    "version": 1
  },
  "userdoc": {
    "kind": "user",
    "methods": {
      "depositTokens(address,uint256)": {
        "notice": "把token存入到账户对应的资金托管合约，用户必须先同意"
      },
      "extractTokens(address,uint256)": {
        "notice": "从个人资金托管合约中取出token"
      },
      "limitOrder(bytes32,bytes32,bytes32,uint256,uint256)": {
        "notice": "创建一个限价订单"
      },
      "marketOrder(bytes32,bytes32,bytes32,uint256)": {
        "notice": "创建一个市价订单"
      },
      "whitelistToken(bytes32,address,bytes32[],address[])": {
        "notice": "只有把token加入到白名单才能进行交易"
      }
    },
    "version": 1
  }
}