{
    "contractName": "DAX",
    "abi": [
        {
            "inputs": [],
            "stateMutability": "nonpayable",
            "type": "constructor"
        },
        {
            "anonymous": false,
            "inputs": [
                {
                    "indexed": false,
                    "internalType": "bytes32",
                    "name": "_type",
                    "type": "bytes32"
                },
                {
                    "indexed": true,
                    "internalType": "address",
                    "name": "from",
                    "type": "address"
                },
                {
                    "indexed": true,
                    "internalType": "address",
                    "name": "to",
                    "type": "address"
                },
                {
                    "indexed": false,
                    "internalType": "bytes32",
                    "name": "tokenSymbol",
                    "type": "bytes32"
                },
                {
                    "indexed": false,
                    "internalType": "uint256",
                    "name": "quantity",
                    "type": "uint256"
                }
            ],
            "name": "TransferOrder",
            "type": "event"
        },
        {
            "stateMutability": "nonpayable",
            "type": "fallback"
        },
        {
            "inputs": [
                {
                    "internalType": "uint256",
                    "name": "",
                    "type": "uint256"
                }
            ],
            "name": "buyOrderIndexById",
            "outputs": [
                {
                    "internalType": "uint256",
                    "name": "",
                    "type": "uint256"
                }
            ],
            "stateMutability": "view",
            "type": "function"
        },
        {
            "inputs": [
                {
                    "internalType": "uint256",
                    "name": "",
                    "type": "uint256"
                }
            ],
            "name": "buyOrders",
            "outputs": [
                {
                    "internalType": "uint256",
                    "name": "id",
                    "type": "uint256"
                },
                {
                    "internalType": "address",
                    "name": "owner",
                    "type": "address"
                },
                {
                    "internalType": "bytes32",
                    "name": "orderType",
                    "type": "bytes32"
                },
                {
                    "internalType": "bytes32",
                    "name": "firstSymbol",
                    "type": "bytes32"
                },
                {
                    "internalType": "bytes32",
                    "name": "secondSymbol",
                    "type": "bytes32"
                },
                {
                    "internalType": "uint256",
                    "name": "quantiry",
                    "type": "uint256"
                },
                {
                    "internalType": "uint256",
                    "name": "price",
                    "type": "uint256"
                },
                {
                    "internalType": "uint256",
                    "name": "timestamp",
                    "type": "uint256"
                },
                {
                    "internalType": "enum DAX.OrderState",
                    "name": "state",
                    "type": "uint8"
                }
            ],
            "stateMutability": "view",
            "type": "function"
        },
        {
            "inputs": [
                {
                    "internalType": "bytes32",
                    "name": "_firstSymbol",
                    "type": "bytes32"
                },
                {
                    "internalType": "bytes32",
                    "name": "_secondSymbol",
                    "type": "bytes32"
                }
            ],
            "name": "checkValidPair",
            "outputs": [
                {
                    "internalType": "bool",
                    "name": "",
                    "type": "bool"
                }
            ],
            "stateMutability": "view",
            "type": "function"
        },
        {
            "inputs": [
                {
                    "internalType": "uint256",
                    "name": "",
                    "type": "uint256"
                }
            ],
            "name": "closedOrder",
            "outputs": [
                {
                    "internalType": "uint256",
                    "name": "id",
                    "type": "uint256"
                },
                {
                    "internalType": "address",
                    "name": "owner",
                    "type": "address"
                },
                {
                    "internalType": "bytes32",
                    "name": "orderType",
                    "type": "bytes32"
                },
                {
                    "internalType": "bytes32",
                    "name": "firstSymbol",
                    "type": "bytes32"
                },
                {
                    "internalType": "bytes32",
                    "name": "secondSymbol",
                    "type": "bytes32"
                },
                {
                    "internalType": "uint256",
                    "name": "quantiry",
                    "type": "uint256"
                },
                {
                    "internalType": "uint256",
                    "name": "price",
                    "type": "uint256"
                },
                {
                    "internalType": "uint256",
                    "name": "timestamp",
                    "type": "uint256"
                },
                {
                    "internalType": "enum DAX.OrderState",
                    "name": "state",
                    "type": "uint8"
                }
            ],
            "stateMutability": "view",
            "type": "function"
        },
        {
            "inputs": [
                {
                    "internalType": "address",
                    "name": "_token",
                    "type": "address"
                },
                {
                    "internalType": "uint256",
                    "name": "_amount",
                    "type": "uint256"
                }
            ],
            "name": "depositTokens",
            "outputs": [],
            "stateMutability": "nonpayable",
            "type": "function"
        },
        {
            "inputs": [
                {
                    "internalType": "address",
                    "name": "",
                    "type": "address"
                }
            ],
            "name": "escrowByUserAddress",
            "outputs": [
                {
                    "internalType": "address",
                    "name": "",
                    "type": "address"
                }
            ],
            "stateMutability": "view",
            "type": "function"
        },
        {
            "inputs": [
                {
                    "internalType": "address",
                    "name": "_token",
                    "type": "address"
                },
                {
                    "internalType": "uint256",
                    "name": "_amount",
                    "type": "uint256"
                }
            ],
            "name": "extractTokens",
            "outputs": [],
            "stateMutability": "nonpayable",
            "type": "function"
        },
        {
            "inputs": [
                {
                    "internalType": "bytes32",
                    "name": "_token",
                    "type": "bytes32"
                }
            ],
            "name": "getTokenPairs",
            "outputs": [
                {
                    "internalType": "bytes32[]",
                    "name": "",
                    "type": "bytes32[]"
                }
            ],
            "stateMutability": "view",
            "type": "function"
        },
        {
            "inputs": [
                {
                    "internalType": "bytes32",
                    "name": "",
                    "type": "bytes32"
                }
            ],
            "name": "isTokenSymbolWhitelisted",
            "outputs": [
                {
                    "internalType": "bool",
                    "name": "",
                    "type": "bool"
                }
            ],
            "stateMutability": "view",
            "type": "function"
        },
        {
            "inputs": [
                {
                    "internalType": "address",
                    "name": "",
                    "type": "address"
                }
            ],
            "name": "isTokenWhitelisted",
            "outputs": [
                {
                    "internalType": "bool",
                    "name": "",
                    "type": "bool"
                }
            ],
            "stateMutability": "view",
            "type": "function"
        },
        {
            "inputs": [
                {
                    "internalType": "bytes32",
                    "name": "_type",
                    "type": "bytes32"
                },
                {
                    "internalType": "bytes32",
                    "name": "_firstSymbol",
                    "type": "bytes32"
                },
                {
                    "internalType": "bytes32",
                    "name": "_secondSymbol",
                    "type": "bytes32"
                },
                {
                    "internalType": "uint256",
                    "name": "_quantity",
                    "type": "uint256"
                },
                {
                    "internalType": "uint256",
                    "name": "_pricePerToken",
                    "type": "uint256"
                }
            ],
            "name": "limitOrder",
            "outputs": [],
            "stateMutability": "nonpayable",
            "type": "function"
        },
        {
            "inputs": [
                {
                    "internalType": "bytes32",
                    "name": "_type",
                    "type": "bytes32"
                },
                {
                    "internalType": "bytes32",
                    "name": "_firstSymbol",
                    "type": "bytes32"
                },
                {
                    "internalType": "bytes32",
                    "name": "_secondSymbol",
                    "type": "bytes32"
                },
                {
                    "internalType": "uint256",
                    "name": "_quantity",
                    "type": "uint256"
                }
            ],
            "name": "marketOrder",
            "outputs": [],
            "stateMutability": "nonpayable",
            "type": "function"
        },
        {
            "inputs": [
                {
                    "internalType": "uint256",
                    "name": "",
                    "type": "uint256"
                }
            ],
            "name": "orderById",
            "outputs": [
                {
                    "internalType": "uint256",
                    "name": "id",
                    "type": "uint256"
                },
                {
                    "internalType": "address",
                    "name": "owner",
                    "type": "address"
                },
                {
                    "internalType": "bytes32",
                    "name": "orderType",
                    "type": "bytes32"
                },
                {
                    "internalType": "bytes32",
                    "name": "firstSymbol",
                    "type": "bytes32"
                },
                {
                    "internalType": "bytes32",
                    "name": "secondSymbol",
                    "type": "bytes32"
                },
                {
                    "internalType": "uint256",
                    "name": "quantiry",
                    "type": "uint256"
                },
                {
                    "internalType": "uint256",
                    "name": "price",
                    "type": "uint256"
                },
                {
                    "internalType": "uint256",
                    "name": "timestamp",
                    "type": "uint256"
                },
                {
                    "internalType": "enum DAX.OrderState",
                    "name": "state",
                    "type": "uint8"
                }
            ],
            "stateMutability": "view",
            "type": "function"
        },
        {
            "inputs": [],
            "name": "orderIdCounters",
            "outputs": [
                {
                    "internalType": "uint256",
                    "name": "",
                    "type": "uint256"
                }
            ],
            "stateMutability": "view",
            "type": "function"
        },
        {
            "inputs": [],
            "name": "owner",
            "outputs": [
                {
                    "internalType": "address",
                    "name": "",
                    "type": "address"
                }
            ],
            "stateMutability": "view",
            "type": "function"
        },
        {
            "inputs": [
                {
                    "internalType": "uint256",
                    "name": "",
                    "type": "uint256"
                }
            ],
            "name": "sellOrder",
            "outputs": [
                {
                    "internalType": "uint256",
                    "name": "id",
                    "type": "uint256"
                },
                {
                    "internalType": "address",
                    "name": "owner",
                    "type": "address"
                },
                {
                    "internalType": "bytes32",
                    "name": "orderType",
                    "type": "bytes32"
                },
                {
                    "internalType": "bytes32",
                    "name": "firstSymbol",
                    "type": "bytes32"
                },
                {
                    "internalType": "bytes32",
                    "name": "secondSymbol",
                    "type": "bytes32"
                },
                {
                    "internalType": "uint256",
                    "name": "quantiry",
                    "type": "uint256"
                },
                {
                    "internalType": "uint256",
                    "name": "price",
                    "type": "uint256"
                },
                {
                    "internalType": "uint256",
                    "name": "timestamp",
                    "type": "uint256"
                },
                {
                    "internalType": "enum DAX.OrderState",
                    "name": "state",
                    "type": "uint8"
                }
            ],
            "stateMutability": "view",
            "type": "function"
        },
        {
            "inputs": [
                {
                    "internalType": "bytes32",
                    "name": "_type",
                    "type": "bytes32"
                }
            ],
            "name": "sortIdsByPrice",
            "outputs": [
                {
                    "internalType": "uint256[]",
                    "name": "",
                    "type": "uint256[]"
                }
            ],
            "stateMutability": "view",
            "type": "function"
        },
        {
            "inputs": [
                {
                    "internalType": "bytes32",
                    "name": "",
                    "type": "bytes32"
                }
            ],
            "name": "tokenAddressBySymbol",
            "outputs": [
                {
                    "internalType": "address",
                    "name": "",
                    "type": "address"
                }
            ],
            "stateMutability": "view",
            "type": "function"
        },
        {
            "inputs": [
                {
                    "internalType": "bytes32",
                    "name": "",
                    "type": "bytes32"
                },
                {
                    "internalType": "uint256",
                    "name": "",
                    "type": "uint256"
                }
            ],
            "name": "tokenPairs",
            "outputs": [
                {
                    "internalType": "bytes32",
                    "name": "",
                    "type": "bytes32"
                }
            ],
            "stateMutability": "view",
            "type": "function"
        },
        {
            "inputs": [
                {
                    "internalType": "uint256",
                    "name": "",
                    "type": "uint256"
                }
            ],
            "name": "users",
            "outputs": [
                {
                    "internalType": "address",
                    "name": "",
                    "type": "address"
                }
            ],
            "stateMutability": "view",
            "type": "function"
        },
        {
            "inputs": [
                {
                    "internalType": "bytes32",
                    "name": "_symbol",
                    "type": "bytes32"
                },
                {
                    "internalType": "address",
                    "name": "_token",
                    "type": "address"
                },
                {
                    "internalType": "bytes32[]",
                    "name": "_tokenPairSymbols",
                    "type": "bytes32[]"
                },
                {
                    "internalType": "address[]",
                    "name": "_tokenPairAddress",
                    "type": "address[]"
                }
            ],
            "name": "whitelistToken",
            "outputs": [],
            "stateMutability": "nonpayable",
            "type": "function"
        },
        {
            "inputs": [
                {
                    "internalType": "uint256",
                    "name": "",
                    "type": "uint256"
                }
            ],
            "name": "whitelistedTokenSymbols",
            "outputs": [
                {
                    "internalType": "bytes32",
                    "name": "",
                    "type": "bytes32"
                }
            ],
            "stateMutability": "view",
            "type": "function"
        },
        {
            "inputs": [
                {
                    "internalType": "uint256",
                    "name": "",
                    "type": "uint256"
                }
            ],
            "name": "whitelistedTokens",
            "outputs": [
                {
                    "internalType": "address",
                    "name": "",
                    "type": "address"
                }
            ],
            "stateMutability": "view",
            "type": "function"
        }
    ],
    "bytecode": "608060405234801561001057600080fd5b50600480546001600160a01b031916331790556108a0806100326000396000f3fe608060405234801561001057600080fd5b506004361061014d5760003560e01c8063877f4c53116100c35780639a0aac811161007c5780639a0aac811461051a578063a4d515ae14610537578063ab42950e14610566578063b5af090f14610583578063f0512c78146105a9578063fc5923d6146105cc5761014d565b8063877f4c53146104b3578063887083ab146104155780638d77eba5146104d05780638da5cb5b146104ed57806393ef25e7146104f557806397514d90146104fd5761014d565b80632a69d0a8116101155780632a69d0a81461023157806335cea2881461036d578063365b98b2146103f857806366168bd7146101c057806384b8b6811461041557806384d2e770146104825761014d565b80631008ed4b14610152578063145bd99c1461018b57806314cc25e8146101c05780631fd36a26146101ee5780632154bc4414610214575b600080fd5b61016f6004803603602081101561016857600080fd5b5035610601565b604080516001600160a01b039092168252519081900360200190f35b6101ae600480360360408110156101a157600080fd5b508035906020013561061c565b60408051918252519081900360200190f35b6101ec600480360360408110156101d657600080fd5b506001600160a01b03813516906020013561064a565b005b61016f6004803603602081101561020457600080fd5b50356001600160a01b031661064e565b61016f6004803603602081101561022a57600080fd5b5035610669565b6101ec6004803603608081101561024757600080fd5b8135916001600160a01b036020820135169181019060608101604082013564010000000081111561027757600080fd5b82018360208201111561028957600080fd5b803590602001918460208302840111640100000000831117156102ab57600080fd5b91908080602002602001604051908101604052809392919081815260200183836020028082843760009201919091525092959493602081019350359150506401000000008111156102fb57600080fd5b82018360208201111561030d57600080fd5b8035906020019184602083028401116401000000008311171561032f57600080fd5b919080806020026020016040519081016040528093929190818152602001838360200280828437600092019190915250929550610690945050505050565b61038a6004803603602081101561038357600080fd5b50356106df565b604051808a8152602001896001600160a01b03166001600160a01b031681526020018881526020018781526020018681526020018581526020018481526020018381526020018260018111156103dc57fe5b60ff168152602001995050505050505050505060405180910390f35b61016f6004803603602081101561040e57600080fd5b5035610744565b6104326004803603602081101561042b57600080fd5b5035610751565b60408051602080825283518183015283519192839290830191858101910280838360005b8381101561046e578181015183820152602001610456565b505050509050019250505060405180910390f35b61049f6004803603602081101561049857600080fd5b5035610757565b604080519115158252519081900360200190f35b61038a600480360360208110156104c957600080fd5b503561076c565b61038a600480360360208110156104e657600080fd5b5035610779565b61016f6107d1565b6101ae6107e0565b61038a6004803603602081101561051357600080fd5b50356107e6565b6101ae6004803603602081101561053057600080fd5b50356107f3565b6101ec6004803603608081101561054d57600080fd5b50803590602081013590604081013590606001356106d9565b6101ae6004803603602081101561057c57600080fd5b5035610805565b61049f6004803603602081101561059957600080fd5b50356001600160a01b0316610823565b61049f600480360360408110156105bf57600080fd5b5080359060200135610838565b6101ec600480360360a08110156105e257600080fd5b5080359060208101359060408101359060608101359060800135610840565b600b602052600090815260409020546001600160a01b031681565b600a602052816000526040600020818154811061063557fe5b90600052602060002001600091509150505481565b5050565b600e602052600090815260409020546001600160a01b031681565b6005818154811061067657fe5b6000918252602090912001546001600160a01b0316905081565b6004546001600160a01b031633146106d95760405162461bcd60e51b81526004018080602001828103825260238152602001806108486023913960400191505060405180910390fd5b50505050565b600081815481106106ec57fe5b60009182526020909120600990910201805460018201546002830154600384015460048501546005860154600687015460078801546008909801549698506001600160a01b0390951696939592949193909260ff1689565b6007818154811061067657fe5b50606090565b60096020526000908152604090205460ff1681565b600281815481106106ec57fe5b600c6020526000908152604090208054600182015460028301546003840154600485015460058601546006870154600788015460089098015496976001600160a01b0390961696949593949293919290919060ff1689565b6004546001600160a01b031681565b60035481565b600181815481106106ec57fe5b600d6020526000908152604090205481565b6006818154811061081257fe5b600091825260209091200154905081565b60086020526000908152604090205460ff1681565b600092915050565b505050505056fee58faae69c896f776e6572e6898de58fafe4bba5e8b083e794a8e6ada4e587bde695b0a26469706673582212208589555eccb968de0b71cdeb7e3a5d5797a195b4a57f29f0e4ac6e0025a2a8a864736f6c63430006090033",
    "sourcePath": "/Users/shibaoxu/dev/learning/dapp-sample/contracts/contracts/DAX.sol",
    "compiler": {
        "name": "solc",
        "version": "0.6.9+commit.3e3065ac"
    },
    "functionHashes": {
        "buyOrderIndexById(uint256)": "9a0aac81",
        "buyOrders(uint256)": "35cea288",
        "checkValidPair(bytes32,bytes32)": "f0512c78",
        "closedOrder(uint256)": "877f4c53",
        "depositTokens(address,uint256)": "66168bd7",
        "escrowByUserAddress(address)": "1fd36a26",
        "extractTokens(address,uint256)": "14cc25e8",
        "getTokenPairs(bytes32)": "84b8b681",
        "isTokenSymbolWhitelisted(bytes32)": "84d2e770",
        "isTokenWhitelisted(address)": "b5af090f",
        "limitOrder(bytes32,bytes32,bytes32,uint256,uint256)": "fc5923d6",
        "marketOrder(bytes32,bytes32,bytes32,uint256)": "a4d515ae",
        "orderById(uint256)": "8d77eba5",
        "orderIdCounters()": "93ef25e7",
        "owner()": "8da5cb5b",
        "sellOrder(uint256)": "97514d90",
        "sortIdsByPrice(bytes32)": "887083ab",
        "tokenAddressBySymbol(bytes32)": "1008ed4b",
        "tokenPairs(bytes32,uint256)": "145bd99c",
        "users(uint256)": "365b98b2",
        "whitelistToken(bytes32,address,bytes32[],address[])": "2a69d0a8",
        "whitelistedTokenSymbols(uint256)": "ab42950e",
        "whitelistedTokens(uint256)": "2154bc44"
    },
    "gasEstimates": {
        "creation": {
            "codeDepositCost": "441600",
            "executionCost": "21309",
            "totalCost": "462909"
        },
        "external": {
            "": "238",
            "buyOrderIndexById(uint256)": "1128",
            "buyOrders(uint256)": "8763",
            "checkValidPair(bytes32,bytes32)": "378",
            "closedOrder(uint256)": "8741",
            "depositTokens(address,uint256)": "312",
            "escrowByUserAddress(address)": "1253",
            "extractTokens(address,uint256)": "291",
            "getTokenPairs(bytes32)": "infinite",
            "isTokenSymbolWhitelisted(bytes32)": "1251",
            "isTokenWhitelisted(address)": "1224",
            "limitOrder(bytes32,bytes32,bytes32,uint256,uint256)": "388",
            "marketOrder(bytes32,bytes32,bytes32,uint256)": "283",
            "orderById(uint256)": "7958",
            "orderIdCounters()": "1109",
            "owner()": "1126",
            "sellOrder(uint256)": "8851",
            "sortIdsByPrice(bytes32)": "infinite",
            "tokenAddressBySymbol(bytes32)": "1169",
            "tokenPairs(bytes32,uint256)": "2059",
            "users(uint256)": "2037",
            "whitelistToken(bytes32,address,bytes32[],address[])": "infinite",
            "whitelistedTokenSymbols(uint256)": "1997",
            "whitelistedTokens(uint256)": "2082"
        }
    }
}