{
  "contractName": "ERC20Factory",
  "abi": [
    {
      "anonymous": false,
      "inputs": [
        {
          "components": [
            {
              "internalType": "string",
              "name": "name",
              "type": "string"
            },
            {
              "internalType": "string",
              "name": "symbol",
              "type": "string"
            },
            {
              "internalType": "uint8",
              "name": "decimal",
              "type": "uint8"
            },
            {
              "internalType": "uint256",
              "name": "totalSupply",
              "type": "uint256"
            },
            {
              "internalType": "address",
              "name": "creator",
              "type": "address"
            },
            {
              "internalType": "address",
              "name": "addr",
              "type": "address"
            },
            {
              "internalType": "uint256",
              "name": "createTime",
              "type": "uint256"
            }
          ],
          "indexed": false,
          "internalType": "struct ERC20Factory.Token",
          "name": "token",
          "type": "tuple"
        }
      ],
      "name": "Issue",
      "type": "event"
    },
    {
      "inputs": [
        {
          "internalType": "address",
          "name": "",
          "type": "address"
        },
        {
          "internalType": "uint256",
          "name": "",
          "type": "uint256"
        }
      ],
      "name": "created",
      "outputs": [
        {
          "internalType": "address",
          "name": "",
          "type": "address"
        }
      ],
      "stateMutability": "view",
      "type": "function",
      "constant": true
    },
    {
      "inputs": [
        {
          "internalType": "uint256",
          "name": "",
          "type": "uint256"
        }
      ],
      "name": "tokens",
      "outputs": [
        {
          "internalType": "string",
          "name": "name",
          "type": "string"
        },
        {
          "internalType": "string",
          "name": "symbol",
          "type": "string"
        },
        {
          "internalType": "uint8",
          "name": "decimal",
          "type": "uint8"
        },
        {
          "internalType": "uint256",
          "name": "totalSupply",
          "type": "uint256"
        },
        {
          "internalType": "address",
          "name": "creator",
          "type": "address"
        },
        {
          "internalType": "address",
          "name": "addr",
          "type": "address"
        },
        {
          "internalType": "uint256",
          "name": "createTime",
          "type": "uint256"
        }
      ],
      "stateMutability": "view",
      "type": "function",
      "constant": true
    },
    {
      "inputs": [
        {
          "internalType": "uint256",
          "name": "initialAmount",
          "type": "uint256"
        },
        {
          "internalType": "string",
          "name": "name",
          "type": "string"
        },
        {
          "internalType": "uint8",
          "name": "decimal",
          "type": "uint8"
        },
        {
          "internalType": "string",
          "name": "symbol",
          "type": "string"
        }
      ],
      "name": "createERC20",
      "outputs": [],
      "stateMutability": "nonpayable",
      "type": "function"
    },
    {
      "inputs": [
        {
          "internalType": "address",
          "name": "addr",
          "type": "address"
        }
      ],
      "name": "getCreated",
      "outputs": [
        {
          "internalType": "address[]",
          "name": "",
          "type": "address[]"
        }
      ],
      "stateMutability": "view",
      "type": "function",
      "constant": true
    },
    {
      "inputs": [],
      "name": "getTokens",
      "outputs": [
        {
          "components": [
            {
              "internalType": "string",
              "name": "name",
              "type": "string"
            },
            {
              "internalType": "string",
              "name": "symbol",
              "type": "string"
            },
            {
              "internalType": "uint8",
              "name": "decimal",
              "type": "uint8"
            },
            {
              "internalType": "uint256",
              "name": "totalSupply",
              "type": "uint256"
            },
            {
              "internalType": "address",
              "name": "creator",
              "type": "address"
            },
            {
              "internalType": "address",
              "name": "addr",
              "type": "address"
            },
            {
              "internalType": "uint256",
              "name": "createTime",
              "type": "uint256"
            }
          ],
          "internalType": "struct ERC20Factory.Token[]",
          "name": "",
          "type": "tuple[]"
        }
      ],
      "stateMutability": "view",
      "type": "function",
      "constant": true
    }
  ],
  "bytecode": "0x608060405234801561001057600080fd5b50612ed6806100206000396000f3fe60806040523480156200001157600080fd5b50600436106200005e5760003560e01c80630ef9899214620000635780634f64b2be14620000995780635f8dead314620000d5578063aa6ca808146200010b578063b6791322146200012d575b600080fd5b6200008160048036038101906200007b919062000c6a565b6200014d565b604051620000909190620011aa565b60405180910390f35b620000b76004803603810190620000b1919062000d03565b6200021b565b604051620000cc97969594939291906200124d565b60405180910390f35b620000f36004803603810190620000ed919062000c96565b620003f0565b60405162000102919062001143565b60405180910390f35b620001156200043c565b604051620001249190620011ce565b60405180910390f35b6200014b600480360381019062000145919062000d2f565b620006c6565b005b60606000808373ffffffffffffffffffffffffffffffffffffffff1673ffffffffffffffffffffffffffffffffffffffff1681526020019081526020016000208054806020026020016040519081016040528092919081815260200182805480156200020f57602002820191906000526020600020905b8160009054906101000a900473ffffffffffffffffffffffffffffffffffffffff1673ffffffffffffffffffffffffffffffffffffffff1681526020019060010190808311620001c4575b50505050509050919050565b600181815481106200022957fe5b9060005260206000209060070201600091509050806000018054600181600116156101000203166002900480601f016020809104026020016040519081016040528092919081815260200182805460018160011615610100020316600290048015620002d95780601f10620002ad57610100808354040283529160200191620002d9565b820191906000526020600020905b815481529060010190602001808311620002bb57829003601f168201915b505050505090806001018054600181600116156101000203166002900480601f0160208091040260200160405190810160405280929190818152602001828054600181600116156101000203166002900480156200037b5780601f106200034f576101008083540402835291602001916200037b565b820191906000526020600020905b8154815290600101906020018083116200035d57829003601f168201915b5050505050908060020160009054906101000a900460ff16908060030154908060040160009054906101000a900473ffffffffffffffffffffffffffffffffffffffff16908060050160009054906101000a900473ffffffffffffffffffffffffffffffffffffffff16908060060154905087565b600060205281600052604060002081815481106200040a57fe5b906000526020600020016000915091509054906101000a900473ffffffffffffffffffffffffffffffffffffffff1681565b60606001805480602002602001604051908101604052809291908181526020016000905b82821015620006bd57838290600052602060002090600702016040518060e0016040529081600082018054600181600116156101000203166002900480601f016020809104026020016040519081016040528092919081815260200182805460018160011615610100020316600290048015620005215780601f10620004f55761010080835404028352916020019162000521565b820191906000526020600020905b8154815290600101906020018083116200050357829003601f168201915b50505050508152602001600182018054600181600116156101000203166002900480601f016020809104026020016040519081016040528092919081815260200182805460018160011615610100020316600290048015620005c75780601f106200059b57610100808354040283529160200191620005c7565b820191906000526020600020905b815481529060010190602001808311620005a957829003601f168201915b505050505081526020016002820160009054906101000a900460ff1660ff1660ff168152602001600382015481526020016004820160009054906101000a900473ffffffffffffffffffffffffffffffffffffffff1673ffffffffffffffffffffffffffffffffffffffff1673ffffffffffffffffffffffffffffffffffffffff1681526020016005820160009054906101000a900473ffffffffffffffffffffffffffffffffffffffff1673ffffffffffffffffffffffffffffffffffffffff1673ffffffffffffffffffffffffffffffffffffffff1681526020016006820154815250508152602001906001019062000460565b50505050905090565b600083828685604051620006da9062000a89565b620006e99493929190620011f2565b604051809103906000f08015801562000706573d6000803e3d6000fd5b5090506000803373ffffffffffffffffffffffffffffffffffffffff1673ffffffffffffffffffffffffffffffffffffffff168152602001908152602001600020819080600181540180825580915050600190039060005260206000200160009091909190916101000a81548173ffffffffffffffffffffffffffffffffffffffff021916908373ffffffffffffffffffffffffffffffffffffffff160217905550620007b262000a97565b6040518060e001604052808681526020018481526020018560ff1681526020018781526020013373ffffffffffffffffffffffffffffffffffffffff1681526020018373ffffffffffffffffffffffffffffffffffffffff1681526020014281525090508173ffffffffffffffffffffffffffffffffffffffff1663a9059cbb33886040518363ffffffff1660e01b8152600401620008539291906200117d565b602060405180830381600087803b1580156200086e57600080fd5b505af115801562000883573d6000803e3d6000fd5b505050506040513d601f19601f82011682018060405250810190620008a9919062000cd7565b508173ffffffffffffffffffffffffffffffffffffffff1663f2fde38b336040518263ffffffff1660e01b8152600401620008e5919062001160565b600060405180830381600087803b1580156200090057600080fd5b505af115801562000915573d6000803e3d6000fd5b50505050600181908060018154018082558091505060019003906000526020600020906007020160009091909190915060008201518160000190805190602001906200096392919062000b03565b5060208201518160010190805190602001906200098292919062000b03565b5060408201518160020160006101000a81548160ff021916908360ff1602179055506060820151816003015560808201518160040160006101000a81548173ffffffffffffffffffffffffffffffffffffffff021916908373ffffffffffffffffffffffffffffffffffffffff16021790555060a08201518160050160006101000a81548173ffffffffffffffffffffffffffffffffffffffff021916908373ffffffffffffffffffffffffffffffffffffffff16021790555060c0820151816006015550507f3a217e7f61e36178097f900c37d21a998dd748bc0e1a052bbf9470487eee09968160405162000a799190620012d8565b60405180910390a1505050505050565b611959806200154883390190565b6040518060e001604052806060815260200160608152602001600060ff16815260200160008152602001600073ffffffffffffffffffffffffffffffffffffffff168152602001600073ffffffffffffffffffffffffffffffffffffffff168152602001600081525090565b828054600181600116156101000203166002900490600052602060002090601f016020900481019282601f1062000b4657805160ff191683800117855562000b77565b8280016001018555821562000b77579182015b8281111562000b7657825182559160200191906001019062000b59565b5b50905062000b86919062000b8a565b5090565b62000baf91905b8082111562000bab57600081600090555060010162000b91565b5090565b90565b60008135905062000bc381620014df565b92915050565b60008151905062000bda81620014f9565b92915050565b600082601f83011262000bf257600080fd5b813562000c0962000c03826200132a565b620012fc565b9150808252602083016020830185838301111562000c2657600080fd5b62000c3383828462001489565b50505092915050565b60008135905062000c4d8162001513565b92915050565b60008135905062000c64816200152d565b92915050565b60006020828403121562000c7d57600080fd5b600062000c8d8482850162000bb2565b91505092915050565b6000806040838503121562000caa57600080fd5b600062000cba8582860162000bb2565b925050602062000ccd8582860162000c3c565b9150509250929050565b60006020828403121562000cea57600080fd5b600062000cfa8482850162000bc9565b91505092915050565b60006020828403121562000d1657600080fd5b600062000d268482850162000c3c565b91505092915050565b6000806000806080858703121562000d4657600080fd5b600062000d568782880162000c3c565b945050602085013567ffffffffffffffff81111562000d7457600080fd5b62000d828782880162000be0565b935050604062000d958782880162000c53565b925050606085013567ffffffffffffffff81111562000db357600080fd5b62000dc18782880162000be0565b91505092959194509250565b600062000ddb838362000e0e565b60208301905092915050565b600062000df5838362000f9d565b905092915050565b62000e08816200144d565b82525050565b62000e1981620013f6565b82525050565b62000e2a81620013f6565b82525050565b600062000e3d8262001377565b62000e498185620013b2565b935062000e568362001357565b8060005b8381101562000e8d57815162000e71888262000dcd565b975062000e7e8362001398565b92505060018101905062000e5a565b5085935050505092915050565b600062000ea78262001382565b62000eb38185620013c3565b93508360208202850162000ec78562001367565b8060005b8581101562000f09578484038952815162000ee7858262000de7565b945062000ef483620013a5565b925060208a0199505060018101905062000ecb565b50829750879550505050505092915050565b600062000f28826200138d565b62000f348185620013d4565b935062000f4681856020860162001498565b62000f5181620014ce565b840191505092915050565b600062000f69826200138d565b62000f758185620013e5565b935062000f8781856020860162001498565b62000f9281620014ce565b840191505092915050565b600060e083016000830151848203600086015262000fbc828262000f1b565b9150506020830151848203602086015262000fd8828262000f1b565b915050604083015162000fef604086018262001121565b506060830151620010046060860182620010ff565b50608083015162001019608086018262000e0e565b5060a08301516200102e60a086018262000e0e565b5060c08301516200104360c0860182620010ff565b508091505092915050565b600060e08301600083015184820360008601526200106d828262000f1b565b9150506020830151848203602086015262001089828262000f1b565b9150506040830151620010a0604086018262001121565b506060830151620010b56060860182620010ff565b506080830151620010ca608086018262000e0e565b5060a0830151620010df60a086018262000e0e565b5060c0830151620010f460c0860182620010ff565b508091505092915050565b6200110a8162001436565b82525050565b6200111b8162001436565b82525050565b6200112c8162001440565b82525050565b6200113d8162001440565b82525050565b60006020820190506200115a600083018462000e1f565b92915050565b600060208201905062001177600083018462000dfd565b92915050565b600060408201905062001194600083018562000dfd565b620011a3602083018462001110565b9392505050565b60006020820190508181036000830152620011c6818462000e30565b905092915050565b60006020820190508181036000830152620011ea818462000e9a565b905092915050565b600060808201905081810360008301526200120e818762000f5c565b9050818103602083015262001224818662000f5c565b905062001235604083018562001110565b62001244606083018462001132565b95945050505050565b600060e082019050818103600083015262001269818a62000f5c565b905081810360208301526200127f818962000f5c565b905062001290604083018862001132565b6200129f606083018762001110565b620012ae608083018662000e1f565b620012bd60a083018562000e1f565b620012cc60c083018462001110565b98975050505050505050565b60006020820190508181036000830152620012f481846200104e565b905092915050565b6000604051905081810181811067ffffffffffffffff821117156200132057600080fd5b8060405250919050565b600067ffffffffffffffff8211156200134257600080fd5b601f19601f8301169050602081019050919050565b6000819050602082019050919050565b6000819050602082019050919050565b600081519050919050565b600081519050919050565b600081519050919050565b6000602082019050919050565b6000602082019050919050565b600082825260208201905092915050565b600082825260208201905092915050565b600082825260208201905092915050565b600082825260208201905092915050565b6000620014038262001416565b9050919050565b60008115159050919050565b600073ffffffffffffffffffffffffffffffffffffffff82169050919050565b6000819050919050565b600060ff82169050919050565b60006200145a8262001461565b9050919050565b60006200146e8262001475565b9050919050565b6000620014828262001416565b9050919050565b82818337600083830152505050565b60005b83811015620014b85780820151818401526020810190506200149b565b83811115620014c8576000848401525b50505050565b6000601f19601f8301169050919050565b620014ea81620013f6565b8114620014f657600080fd5b50565b62001504816200140a565b81146200151057600080fd5b50565b6200151e8162001436565b81146200152a57600080fd5b50565b620015388162001440565b81146200154457600080fd5b5056fe60806040523480156200001157600080fd5b506040516200195938038062001959833981810160405260808110156200003757600080fd5b81019080805160405193929190846401000000008211156200005857600080fd5b838201915060208201858111156200006f57600080fd5b82518660018202830111640100000000821117156200008d57600080fd5b8083526020830192505050908051906020019080838360005b83811015620000c3578082015181840152602081019050620000a6565b50505050905090810190601f168015620000f15780820380516001836020036101000a031916815260200191505b50604052602001805160405193929190846401000000008211156200011557600080fd5b838201915060208201858111156200012c57600080fd5b82518660018202830111640100000000821117156200014a57600080fd5b8083526020830192505050908051906020019080838360005b838110156200018057808201518184015260208101905062000163565b50505050905090810190601f168015620001ae5780820380516001836020036101000a031916815260200191505b5060405260200180519060200190929190805190602001909291905050506000620001de6200031e60201b60201c565b9050806000806101000a81548173ffffffffffffffffffffffffffffffffffffffff021916908373ffffffffffffffffffffffffffffffffffffffff1602179055508073ffffffffffffffffffffffffffffffffffffffff16600073ffffffffffffffffffffffffffffffffffffffff167f8be0079c531659141344cd1fd0a4f28419497f9722a3daafe3b4186f6b6457e060405160405180910390a35083600490805190602001906200029492919062000326565b508260059080519060200190620002ad92919062000326565b5080600660006101000a81548160ff021916908360ff1602179055508160038190555081600160003373ffffffffffffffffffffffffffffffffffffffff1673ffffffffffffffffffffffffffffffffffffffff1681526020019081526020016000208190555050505050620003d5565b600033905090565b828054600181600116156101000203166002900490600052602060002090601f016020900481019282601f106200036957805160ff19168380011785556200039a565b828001600101855582156200039a579182015b82811115620003995782518255916020019190600101906200037c565b5b509050620003a99190620003ad565b5090565b620003d291905b80821115620003ce576000816000905550600101620003b4565b5090565b90565b61157480620003e56000396000f3fe608060405234801561001057600080fd5b50600436106100ea5760003560e01c8063715018a61161008c578063a457c2d711610066578063a457c2d714610435578063a9059cbb1461049b578063dd62ed3e14610501578063f2fde38b14610579576100ea565b8063715018a61461035e5780638da5cb5b1461036857806395d89b41146103b2576100ea565b806323b872dd116100c857806323b872dd146101f6578063313ce5671461027c57806339509351146102a057806370a0823114610306576100ea565b806306fdde03146100ef578063095ea7b31461017257806318160ddd146101d8575b600080fd5b6100f76105bd565b6040518080602001828103825283818151815260200191508051906020019080838360005b8381101561013757808201518184015260208101905061011c565b50505050905090810190601f1680156101645780820380516001836020036101000a031916815260200191505b509250505060405180910390f35b6101be6004803603604081101561018857600080fd5b81019080803573ffffffffffffffffffffffffffffffffffffffff1690602001909291908035906020019092919050505061065f565b604051808215151515815260200191505060405180910390f35b6101e0610676565b6040518082815260200191505060405180910390f35b6102626004803603606081101561020c57600080fd5b81019080803573ffffffffffffffffffffffffffffffffffffffff169060200190929190803573ffffffffffffffffffffffffffffffffffffffff16906020019092919080359060200190929190505050610680565b604051808215151515815260200191505060405180910390f35b610284610747565b604051808260ff1660ff16815260200191505060405180910390f35b6102ec600480360360408110156102b657600080fd5b81019080803573ffffffffffffffffffffffffffffffffffffffff1690602001909291908035906020019092919050505061075e565b604051808215151515815260200191505060405180910390f35b6103486004803603602081101561031c57600080fd5b81019080803573ffffffffffffffffffffffffffffffffffffffff169060200190929190505050610803565b6040518082815260200191505060405180910390f35b61036661084c565b005b6103706109d4565b604051808273ffffffffffffffffffffffffffffffffffffffff1673ffffffffffffffffffffffffffffffffffffffff16815260200191505060405180910390f35b6103ba6109fd565b6040518080602001828103825283818151815260200191508051906020019080838360005b838110156103fa5780820151818401526020810190506103df565b50505050905090810190601f1680156104275780820380516001836020036101000a031916815260200191505b509250505060405180910390f35b6104816004803603604081101561044b57600080fd5b81019080803573ffffffffffffffffffffffffffffffffffffffff16906020019092919080359060200190929190505050610a9f565b604051808215151515815260200191505060405180910390f35b6104e7600480360360408110156104b157600080fd5b81019080803573ffffffffffffffffffffffffffffffffffffffff16906020019092919080359060200190929190505050610b5e565b604051808215151515815260200191505060405180910390f35b6105636004803603604081101561051757600080fd5b81019080803573ffffffffffffffffffffffffffffffffffffffff169060200190929190803573ffffffffffffffffffffffffffffffffffffffff169060200190929190505050610b71565b6040518082815260200191505060405180910390f35b6105bb6004803603602081101561058f57600080fd5b81019080803573ffffffffffffffffffffffffffffffffffffffff169060200190929190505050610bf8565b005b606060048054600181600116156101000203166002900480601f0160208091040260200160405190810160405280929190818152602001828054600181600116156101000203166002900480156106555780601f1061062a57610100808354040283529160200191610655565b820191906000526020600020905b81548152906001019060200180831161063857829003601f168201915b5050505050905090565b600061066c338484610e05565b6001905092915050565b6000600354905090565b600061068d848484610ffc565b610740843361073b856040518060600160405280602881526020016114a960289139600260008b73ffffffffffffffffffffffffffffffffffffffff1673ffffffffffffffffffffffffffffffffffffffff16815260200190815260200160002060003373ffffffffffffffffffffffffffffffffffffffff1673ffffffffffffffffffffffffffffffffffffffff168152602001908152602001600020546112c19092919063ffffffff16565b610e05565b9392505050565b6000600660009054906101000a900460ff16905090565b60006107f933846107f485600260003373ffffffffffffffffffffffffffffffffffffffff1673ffffffffffffffffffffffffffffffffffffffff16815260200190815260200160002060008973ffffffffffffffffffffffffffffffffffffffff1673ffffffffffffffffffffffffffffffffffffffff1681526020019081526020016000205461138190919063ffffffff16565b610e05565b6001905092915050565b6000600160008373ffffffffffffffffffffffffffffffffffffffff1673ffffffffffffffffffffffffffffffffffffffff168152602001908152602001600020549050919050565b610854611409565b73ffffffffffffffffffffffffffffffffffffffff166000809054906101000a900473ffffffffffffffffffffffffffffffffffffffff1673ffffffffffffffffffffffffffffffffffffffff1614610915576040517f08c379a00000000000000000000000000000000000000000000000000000000081526004018080602001828103825260208152602001807f4f776e61626c653a2063616c6c6572206973206e6f7420746865206f776e657281525060200191505060405180910390fd5b600073ffffffffffffffffffffffffffffffffffffffff166000809054906101000a900473ffffffffffffffffffffffffffffffffffffffff1673ffffffffffffffffffffffffffffffffffffffff167f8be0079c531659141344cd1fd0a4f28419497f9722a3daafe3b4186f6b6457e060405160405180910390a360008060006101000a81548173ffffffffffffffffffffffffffffffffffffffff021916908373ffffffffffffffffffffffffffffffffffffffff160217905550565b60008060009054906101000a900473ffffffffffffffffffffffffffffffffffffffff16905090565b606060058054600181600116156101000203166002900480601f016020809104026020016040519081016040528092919081815260200182805460018160011615610100020316600290048015610a955780601f10610a6a57610100808354040283529160200191610a95565b820191906000526020600020905b815481529060010190602001808311610a7857829003601f168201915b5050505050905090565b6000610b543384610b4f8560405180606001604052806025815260200161151a60259139600260003373ffffffffffffffffffffffffffffffffffffffff1673ffffffffffffffffffffffffffffffffffffffff16815260200190815260200160002060008a73ffffffffffffffffffffffffffffffffffffffff1673ffffffffffffffffffffffffffffffffffffffff168152602001908152602001600020546112c19092919063ffffffff16565b610e05565b6001905092915050565b6000610b6b338484610ffc565b92915050565b6000600260008473ffffffffffffffffffffffffffffffffffffffff1673ffffffffffffffffffffffffffffffffffffffff16815260200190815260200160002060008373ffffffffffffffffffffffffffffffffffffffff1673ffffffffffffffffffffffffffffffffffffffff16815260200190815260200160002054905092915050565b610c00611409565b73ffffffffffffffffffffffffffffffffffffffff166000809054906101000a900473ffffffffffffffffffffffffffffffffffffffff1673ffffffffffffffffffffffffffffffffffffffff1614610cc1576040517f08c379a00000000000000000000000000000000000000000000000000000000081526004018080602001828103825260208152602001807f4f776e61626c653a2063616c6c6572206973206e6f7420746865206f776e657281525060200191505060405180910390fd5b600073ffffffffffffffffffffffffffffffffffffffff168173ffffffffffffffffffffffffffffffffffffffff161415610d47576040517f08c379a000000000000000000000000000000000000000000000000000000000815260040180806020018281038252602681526020018061143a6026913960400191505060405180910390fd5b8073ffffffffffffffffffffffffffffffffffffffff166000809054906101000a900473ffffffffffffffffffffffffffffffffffffffff1673ffffffffffffffffffffffffffffffffffffffff167f8be0079c531659141344cd1fd0a4f28419497f9722a3daafe3b4186f6b6457e060405160405180910390a3806000806101000a81548173ffffffffffffffffffffffffffffffffffffffff021916908373ffffffffffffffffffffffffffffffffffffffff16021790555050565b600073ffffffffffffffffffffffffffffffffffffffff168373ffffffffffffffffffffffffffffffffffffffff161415610e8b576040517f08c379a00000000000000000000000000000000000000000000000000000000081526004018080602001828103825260248152602001806114f66024913960400191505060405180910390fd5b600073ffffffffffffffffffffffffffffffffffffffff168273ffffffffffffffffffffffffffffffffffffffff161415610f11576040517f08c379a00000000000000000000000000000000000000000000000000000000081526004018080602001828103825260228152602001806114606022913960400191505060405180910390fd5b80600260008573ffffffffffffffffffffffffffffffffffffffff1673ffffffffffffffffffffffffffffffffffffffff16815260200190815260200160002060008473ffffffffffffffffffffffffffffffffffffffff1673ffffffffffffffffffffffffffffffffffffffff168152602001908152602001600020819055508173ffffffffffffffffffffffffffffffffffffffff168373ffffffffffffffffffffffffffffffffffffffff167f8c5be1e5ebec7d5bd14f71427d1e84f3dd0314c0f7b2291e5b200ac8c7c3b925836040518082815260200191505060405180910390a3505050565b600073ffffffffffffffffffffffffffffffffffffffff168373ffffffffffffffffffffffffffffffffffffffff161415611082576040517f08c379a00000000000000000000000000000000000000000000000000000000081526004018080602001828103825260258152602001806114d16025913960400191505060405180910390fd5b600073ffffffffffffffffffffffffffffffffffffffff168273ffffffffffffffffffffffffffffffffffffffff161415611108576040517f08c379a00000000000000000000000000000000000000000000000000000000081526004018080602001828103825260238152602001806114176023913960400191505060405180910390fd5b611113838383611411565b61117f8160405180606001604052806027815260200161148260279139600160008773ffffffffffffffffffffffffffffffffffffffff1673ffffffffffffffffffffffffffffffffffffffff168152602001908152602001600020546112c19092919063ffffffff16565b600160008573ffffffffffffffffffffffffffffffffffffffff1673ffffffffffffffffffffffffffffffffffffffff1681526020019081526020016000208190555061121481600160008573ffffffffffffffffffffffffffffffffffffffff1673ffffffffffffffffffffffffffffffffffffffff1681526020019081526020016000205461138190919063ffffffff16565b600160008473ffffffffffffffffffffffffffffffffffffffff1673ffffffffffffffffffffffffffffffffffffffff168152602001908152602001600020819055508173ffffffffffffffffffffffffffffffffffffffff168373ffffffffffffffffffffffffffffffffffffffff167fddf252ad1be2c89b69c2b068fc378daa952ba7f163c4a11628f55a4df523b3ef836040518082815260200191505060405180910390a3505050565b600083831115829061136e576040517f08c379a00000000000000000000000000000000000000000000000000000000081526004018080602001828103825283818151815260200191508051906020019080838360005b83811015611333578082015181840152602081019050611318565b50505050905090810190601f1680156113605780820380516001836020036101000a031916815260200191505b509250505060405180910390fd5b5060008385039050809150509392505050565b6000808284019050838110156113ff576040517f08c379a000000000000000000000000000000000000000000000000000000000815260040180806020018281038252601b8152602001807f536166654d6174683a206164646974696f6e206f766572666c6f77000000000081525060200191505060405180910390fd5b8091505092915050565b600033905090565b50505056fe45524332303a207472616e7366657220746f20746865207a65726f20616464726573734f776e61626c653a206e6577206f776e657220697320746865207a65726f206164647265737345524332303a20617070726f766520746f20746865207a65726f206164647265737345524332303a207472616e7366657220616d6f756e742065786563656564732062616c616e636545524332303a207472616e7366657220616d6f756e74206578636565647320616c6c6f77616e636545524332303a207472616e736665722066726f6d20746865207a65726f206164647265737345524332303a20617070726f76652066726f6d20746865207a65726f206164647265737345524332303a2064656372656174656420616c6c6f77616e63652062656c6f77207a65726fa2646970667358221220244c2e09f61b45b053d5411d193d2bb719393a6010ce9d6dfc54d79bb2b8c52464736f6c634300060b0033a2646970667358221220d56093ae13a0a03971d80185fde183e0a5467ab419b9a28c3c070dfd514dd25764736f6c634300060b0033",
  "immutableReferences": {},
  "source": "\n// SPDX-License-Identifier: MIT\npragma solidity >=0.4.21 <0.7.0;\npragma experimental ABIEncoderV2;\n\nimport \"./ERC20.sol\";\ncontract ERC20Factory {\n    event Issue(Token token);\n\n    struct Token {\n        string name;\n        string symbol;\n        uint8 decimal;\n        uint256 totalSupply;\n        address creator;\n        address addr;\n        uint256 createTime;\n    }\n\n    mapping(address => address[]) public created;\n    Token[] public tokens;\n\n    function createERC20(\n        uint256 initialAmount,\n        string memory name,\n        uint8 decimal,\n        string memory symbol\n    ) public{\n        ERC20 newToken = (new ERC20(name, symbol, initialAmount, decimal));\n        created[msg.sender].push(address(newToken));\n        Token memory token = Token(name, symbol, decimal, initialAmount, msg.sender, address(newToken), block.timestamp);        \n        newToken.transfer(msg.sender, initialAmount);\n        newToken.transferOwnership(msg.sender);\n        tokens.push(token);\n        emit Issue(token);\n    }\n\n    function _codeAt(address addr)\n        internal\n        view\n        returns (bytes memory outputCode)\n    {\n        assembly {\n            // solhint-disable-line no-inline-assembly\n            let size := extcodesize(addr)\n            outputCode := mload(0x40)\n            mstore(\n                0x40,\n                add(outputCode, and(add(add(size, 0x20), 0x1f), not(0x1f)))\n            )\n            mstore(outputCode, size)\n            extcodecopy(addr, add(outputCode, 0x20), 0, size)\n        }\n    }\n\n    function getCreated(address addr) public view returns(address[] memory) {\n        return created[addr];\n    }\n    function getTokens() public view returns(Token[] memory){\n        return tokens;\n    }\n\n}\n",
  "sourcePath": "/Users/shibaoxu/dev/learning/dapp-sample/contracts/contracts/token/ERC20Factory.sol",
  "compiler": {
    "name": "solc",
    "version": "0.6.11+commit.5ef660b1.Emscripten.clang"
  },
  "schemaVersion": "3.2.2",
  "updatedAt": "2020-08-21T06:31:06.148Z",
  "networkType": "ethereum",
  "devdoc": {
    "kind": "dev",
    "methods": {},
    "version": 1
  },
  "userdoc": {
    "kind": "user",
    "methods": {},
    "version": 1
  }
}