{
  "contractName": "ERC20Factory",
  "abi": [
    {
      "inputs": [
        {
          "internalType": "address",
          "name": "",
          "type": "address"
        },
        {
          "internalType": "uint256",
          "name": "",
          "type": "uint256"
        }
      ],
      "name": "created",
      "outputs": [
        {
          "internalType": "address",
          "name": "",
          "type": "address"
        }
      ],
      "stateMutability": "view",
      "type": "function",
      "constant": true
    },
    {
      "inputs": [
        {
          "internalType": "uint256",
          "name": "",
          "type": "uint256"
        }
      ],
      "name": "tokens",
      "outputs": [
        {
          "internalType": "string",
          "name": "name",
          "type": "string"
        },
        {
          "internalType": "string",
          "name": "symbol",
          "type": "string"
        },
        {
          "internalType": "uint8",
          "name": "decimal",
          "type": "uint8"
        },
        {
          "internalType": "uint256",
          "name": "totalSupply",
          "type": "uint256"
        },
        {
          "internalType": "address",
          "name": "creator",
          "type": "address"
        },
        {
          "internalType": "address",
          "name": "addr",
          "type": "address"
        }
      ],
      "stateMutability": "view",
      "type": "function",
      "constant": true
    },
    {
      "inputs": [
        {
          "internalType": "uint256",
          "name": "initialAmount",
          "type": "uint256"
        },
        {
          "internalType": "string",
          "name": "name",
          "type": "string"
        },
        {
          "internalType": "uint8",
          "name": "decimal",
          "type": "uint8"
        },
        {
          "internalType": "string",
          "name": "symbol",
          "type": "string"
        }
      ],
      "name": "createERC20",
      "outputs": [
        {
          "internalType": "address",
          "name": "",
          "type": "address"
        }
      ],
      "stateMutability": "nonpayable",
      "type": "function"
    },
    {
      "inputs": [
        {
          "internalType": "address",
          "name": "addr",
          "type": "address"
        }
      ],
      "name": "getCreated",
      "outputs": [
        {
          "internalType": "address[]",
          "name": "",
          "type": "address[]"
        }
      ],
      "stateMutability": "view",
      "type": "function",
      "constant": true
    },
    {
      "inputs": [],
      "name": "getTokens",
      "outputs": [
        {
          "components": [
            {
              "internalType": "string",
              "name": "name",
              "type": "string"
            },
            {
              "internalType": "string",
              "name": "symbol",
              "type": "string"
            },
            {
              "internalType": "uint8",
              "name": "decimal",
              "type": "uint8"
            },
            {
              "internalType": "uint256",
              "name": "totalSupply",
              "type": "uint256"
            },
            {
              "internalType": "address",
              "name": "creator",
              "type": "address"
            },
            {
              "internalType": "address",
              "name": "addr",
              "type": "address"
            }
          ],
          "internalType": "struct ERC20Factory.Token[]",
          "name": "",
          "type": "tuple[]"
        }
      ],
      "stateMutability": "view",
      "type": "function",
      "constant": true
    }
  ],
  "bytecode": "0x608060405234801561001057600080fd5b50612715806100206000396000f3fe60806040523480156200001157600080fd5b50600436106200005e5760003560e01c80630ef9899214620000635780634f64b2be14620000995780635f8dead314620000d4578063aa6ca808146200010a578063b6791322146200012c575b600080fd5b6200008160048036038101906200007b919062000b43565b62000162565b60405162000090919062000fa0565b60405180910390f35b620000b76004803603810190620000b1919062000bdc565b62000230565b604051620000cb9695949392919062001043565b60405180910390f35b620000f26004803603810190620000ec919062000b6f565b620003ff565b60405162000101919062000f56565b60405180910390f35b620001146200044b565b60405162000123919062000fc4565b60405180910390f35b6200014a600480360381019062000144919062000c08565b620006cb565b60405162000159919062000f56565b60405180910390f35b60606000808373ffffffffffffffffffffffffffffffffffffffff1673ffffffffffffffffffffffffffffffffffffffff1681526020019081526020016000208054806020026020016040519081016040528092919081815260200182805480156200022457602002820191906000526020600020905b8160009054906101000a900473ffffffffffffffffffffffffffffffffffffffff1673ffffffffffffffffffffffffffffffffffffffff1681526020019060010190808311620001d9575b50505050509050919050565b600181815481106200023e57fe5b9060005260206000209060060201600091509050806000018054600181600116156101000203166002900480601f016020809104026020016040519081016040528092919081815260200182805460018160011615610100020316600290048015620002ee5780601f10620002c257610100808354040283529160200191620002ee565b820191906000526020600020905b815481529060010190602001808311620002d057829003601f168201915b505050505090806001018054600181600116156101000203166002900480601f016020809104026020016040519081016040528092919081815260200182805460018160011615610100020316600290048015620003905780601f10620003645761010080835404028352916020019162000390565b820191906000526020600020905b8154815290600101906020018083116200037257829003601f168201915b5050505050908060020160009054906101000a900460ff16908060030154908060040160009054906101000a900473ffffffffffffffffffffffffffffffffffffffff16908060050160009054906101000a900473ffffffffffffffffffffffffffffffffffffffff16905086565b600060205281600052604060002081815481106200041957fe5b906000526020600020016000915091509054906101000a900473ffffffffffffffffffffffffffffffffffffffff1681565b60606001805480602002602001604051908101604052809291908181526020016000905b82821015620006c257838290600052602060002090600602016040518060c0016040529081600082018054600181600116156101000203166002900480601f016020809104026020016040519081016040528092919081815260200182805460018160011615610100020316600290048015620005305780601f10620005045761010080835404028352916020019162000530565b820191906000526020600020905b8154815290600101906020018083116200051257829003601f168201915b50505050508152602001600182018054600181600116156101000203166002900480601f016020809104026020016040519081016040528092919081815260200182805460018160011615610100020316600290048015620005d65780601f10620005aa57610100808354040283529160200191620005d6565b820191906000526020600020905b815481529060010190602001808311620005b857829003601f168201915b505050505081526020016002820160009054906101000a900460ff1660ff1660ff168152602001600382015481526020016004820160009054906101000a900473ffffffffffffffffffffffffffffffffffffffff1673ffffffffffffffffffffffffffffffffffffffff1673ffffffffffffffffffffffffffffffffffffffff1681526020016005820160009054906101000a900473ffffffffffffffffffffffffffffffffffffffff1673ffffffffffffffffffffffffffffffffffffffff1673ffffffffffffffffffffffffffffffffffffffff1681525050815260200190600101906200046f565b50505050905090565b60008084838786604051620006e090620009ce565b620006ef949392919062000fe8565b604051809103906000f0801580156200070c573d6000803e3d6000fd5b5090506000803373ffffffffffffffffffffffffffffffffffffffff1673ffffffffffffffffffffffffffffffffffffffff168152602001908152602001600020819080600181540180825580915050600190039060005260206000200160009091909190916101000a81548173ffffffffffffffffffffffffffffffffffffffff021916908373ffffffffffffffffffffffffffffffffffffffff16021790555060016040518060c001604052808781526020018581526020018660ff1681526020018881526020013373ffffffffffffffffffffffffffffffffffffffff1681526020018373ffffffffffffffffffffffffffffffffffffffff168152509080600181540180825580915050600190039060005260206000209060060201600090919091909150600082015181600001908051906020019062000853929190620009dc565b50602082015181600101908051906020019062000872929190620009dc565b5060408201518160020160006101000a81548160ff021916908360ff1602179055506060820151816003015560808201518160040160006101000a81548173ffffffffffffffffffffffffffffffffffffffff021916908373ffffffffffffffffffffffffffffffffffffffff16021790555060a08201518160050160006101000a81548173ffffffffffffffffffffffffffffffffffffffff021916908373ffffffffffffffffffffffffffffffffffffffff16021790555050508073ffffffffffffffffffffffffffffffffffffffff1663a9059cbb33886040518363ffffffff1660e01b81526004016200096b92919062000f73565b602060405180830381600087803b1580156200098657600080fd5b505af11580156200099b573d6000803e3d6000fd5b505050506040513d601f19601f82011682018060405250810190620009c1919062000bb0565b5080915050949350505050565b6113d6806200130a83390190565b828054600181600116156101000203166002900490600052602060002090601f016020900481019282601f1062000a1f57805160ff191683800117855562000a50565b8280016001018555821562000a50579182015b8281111562000a4f57825182559160200191906001019062000a32565b5b50905062000a5f919062000a63565b5090565b62000a8891905b8082111562000a8457600081600090555060010162000a6a565b5090565b90565b60008135905062000a9c81620012a1565b92915050565b60008151905062000ab381620012bb565b92915050565b600082601f83011262000acb57600080fd5b813562000ae262000adc82620010ec565b620010be565b9150808252602083016020830185838301111562000aff57600080fd5b62000b0c8382846200124b565b50505092915050565b60008135905062000b2681620012d5565b92915050565b60008135905062000b3d81620012ef565b92915050565b60006020828403121562000b5657600080fd5b600062000b668482850162000a8b565b91505092915050565b6000806040838503121562000b8357600080fd5b600062000b938582860162000a8b565b925050602062000ba68582860162000b15565b9150509250929050565b60006020828403121562000bc357600080fd5b600062000bd38482850162000aa2565b91505092915050565b60006020828403121562000bef57600080fd5b600062000bff8482850162000b15565b91505092915050565b6000806000806080858703121562000c1f57600080fd5b600062000c2f8782880162000b15565b945050602085013567ffffffffffffffff81111562000c4d57600080fd5b62000c5b8782880162000ab9565b935050604062000c6e8782880162000b2c565b925050606085013567ffffffffffffffff81111562000c8c57600080fd5b62000c9a8782880162000ab9565b91505092959194509250565b600062000cb4838362000ce7565b60208301905092915050565b600062000cce838362000e76565b905092915050565b62000ce1816200120f565b82525050565b62000cf281620011b8565b82525050565b62000d0381620011b8565b82525050565b600062000d168262001139565b62000d22818562001174565b935062000d2f8362001119565b8060005b8381101562000d6657815162000d4a888262000ca6565b975062000d57836200115a565b92505060018101905062000d33565b5085935050505092915050565b600062000d808262001144565b62000d8c818562001185565b93508360208202850162000da08562001129565b8060005b8581101562000de2578484038952815162000dc0858262000cc0565b945062000dcd8362001167565b925060208a0199505060018101905062000da4565b50829750879550505050505092915050565b600062000e01826200114f565b62000e0d818562001196565b935062000e1f8185602086016200125a565b62000e2a8162001290565b840191505092915050565b600062000e42826200114f565b62000e4e8185620011a7565b935062000e608185602086016200125a565b62000e6b8162001290565b840191505092915050565b600060c083016000830151848203600086015262000e95828262000df4565b9150506020830151848203602086015262000eb1828262000df4565b915050604083015162000ec8604086018262000f34565b50606083015162000edd606086018262000f12565b50608083015162000ef2608086018262000ce7565b5060a083015162000f0760a086018262000ce7565b508091505092915050565b62000f1d81620011f8565b82525050565b62000f2e81620011f8565b82525050565b62000f3f8162001202565b82525050565b62000f508162001202565b82525050565b600060208201905062000f6d600083018462000cf8565b92915050565b600060408201905062000f8a600083018562000cd6565b62000f99602083018462000f23565b9392505050565b6000602082019050818103600083015262000fbc818462000d09565b905092915050565b6000602082019050818103600083015262000fe0818462000d73565b905092915050565b6000608082019050818103600083015262001004818762000e35565b905081810360208301526200101a818662000e35565b90506200102b604083018562000f23565b6200103a606083018462000f45565b95945050505050565b600060c08201905081810360008301526200105f818962000e35565b9050818103602083015262001075818862000e35565b905062001086604083018762000f45565b62001095606083018662000f23565b620010a4608083018562000cf8565b620010b360a083018462000cf8565b979650505050505050565b6000604051905081810181811067ffffffffffffffff82111715620010e257600080fd5b8060405250919050565b600067ffffffffffffffff8211156200110457600080fd5b601f19601f8301169050602081019050919050565b6000819050602082019050919050565b6000819050602082019050919050565b600081519050919050565b600081519050919050565b600081519050919050565b6000602082019050919050565b6000602082019050919050565b600082825260208201905092915050565b600082825260208201905092915050565b600082825260208201905092915050565b600082825260208201905092915050565b6000620011c582620011d8565b9050919050565b60008115159050919050565b600073ffffffffffffffffffffffffffffffffffffffff82169050919050565b6000819050919050565b600060ff82169050919050565b60006200121c8262001223565b9050919050565b6000620012308262001237565b9050919050565b60006200124482620011d8565b9050919050565b82818337600083830152505050565b60005b838110156200127a5780820151818401526020810190506200125d565b838111156200128a576000848401525b50505050565b6000601f19601f8301169050919050565b620012ac81620011b8565b8114620012b857600080fd5b50565b620012c681620011cc565b8114620012d257600080fd5b50565b620012e081620011f8565b8114620012ec57600080fd5b50565b620012fa8162001202565b81146200130657600080fd5b5056fe60806040523480156200001157600080fd5b50604051620013d6380380620013d6833981810160405260808110156200003757600080fd5b81019080805160405193929190846401000000008211156200005857600080fd5b838201915060208201858111156200006f57600080fd5b82518660018202830111640100000000821117156200008d57600080fd5b8083526020830192505050908051906020019080838360005b83811015620000c3578082015181840152602081019050620000a6565b50505050905090810190601f168015620000f15780820380516001836020036101000a031916815260200191505b50604052602001805160405193929190846401000000008211156200011557600080fd5b838201915060208201858111156200012c57600080fd5b82518660018202830111640100000000821117156200014a57600080fd5b8083526020830192505050908051906020019080838360005b838110156200018057808201518184015260208101905062000163565b50505050905090810190601f168015620001ae5780820380516001836020036101000a031916815260200191505b5060405260200180519060200190929190805190602001909291905050508360039080519060200190620001e49291906200026d565b508260049080519060200190620001fd9291906200026d565b5080600560006101000a81548160ff021916908360ff16021790555081600281905550816000803373ffffffffffffffffffffffffffffffffffffffff1673ffffffffffffffffffffffffffffffffffffffff16815260200190815260200160002081905550505050506200031c565b828054600181600116156101000203166002900490600052602060002090601f016020900481019282601f10620002b057805160ff1916838001178555620002e1565b82800160010185558215620002e1579182015b82811115620002e0578251825591602001919060010190620002c3565b5b509050620002f09190620002f4565b5090565b6200031991905b8082111562000315576000816000905550600101620002fb565b5090565b90565b6110aa806200032c6000396000f3fe608060405234801561001057600080fd5b50600436106100a95760003560e01c80633950935111610071578063395093511461025f57806370a08231146102c557806395d89b411461031d578063a457c2d7146103a0578063a9059cbb14610406578063dd62ed3e1461046c576100a9565b806306fdde03146100ae578063095ea7b31461013157806318160ddd1461019757806323b872dd146101b5578063313ce5671461023b575b600080fd5b6100b66104e4565b6040518080602001828103825283818151815260200191508051906020019080838360005b838110156100f65780820151818401526020810190506100db565b50505050905090810190601f1680156101235780820380516001836020036101000a031916815260200191505b509250505060405180910390f35b61017d6004803603604081101561014757600080fd5b81019080803573ffffffffffffffffffffffffffffffffffffffff16906020019092919080359060200190929190505050610586565b604051808215151515815260200191505060405180910390f35b61019f61059d565b6040518082815260200191505060405180910390f35b610221600480360360608110156101cb57600080fd5b81019080803573ffffffffffffffffffffffffffffffffffffffff169060200190929190803573ffffffffffffffffffffffffffffffffffffffff169060200190929190803590602001909291905050506105a7565b604051808215151515815260200191505060405180910390f35b61024361066e565b604051808260ff1660ff16815260200191505060405180910390f35b6102ab6004803603604081101561027557600080fd5b81019080803573ffffffffffffffffffffffffffffffffffffffff16906020019092919080359060200190929190505050610685565b604051808215151515815260200191505060405180910390f35b610307600480360360208110156102db57600080fd5b81019080803573ffffffffffffffffffffffffffffffffffffffff16906020019092919050505061072a565b6040518082815260200191505060405180910390f35b610325610772565b6040518080602001828103825283818151815260200191508051906020019080838360005b8381101561036557808201518184015260208101905061034a565b50505050905090810190601f1680156103925780820380516001836020036101000a031916815260200191505b509250505060405180910390f35b6103ec600480360360408110156103b657600080fd5b81019080803573ffffffffffffffffffffffffffffffffffffffff16906020019092919080359060200190929190505050610814565b604051808215151515815260200191505060405180910390f35b6104526004803603604081101561041c57600080fd5b81019080803573ffffffffffffffffffffffffffffffffffffffff169060200190929190803590602001909291905050506108d3565b604051808215151515815260200191505060405180910390f35b6104ce6004803603604081101561048257600080fd5b81019080803573ffffffffffffffffffffffffffffffffffffffff169060200190929190803573ffffffffffffffffffffffffffffffffffffffff1690602001909291905050506108e6565b6040518082815260200191505060405180910390f35b606060038054600181600116156101000203166002900480601f01602080910402602001604051908101604052809291908181526020018280546001816001161561010002031660029004801561057c5780601f106105515761010080835404028352916020019161057c565b820191906000526020600020905b81548152906001019060200180831161055f57829003601f168201915b5050505050905090565b600061059333848461096d565b6001905092915050565b6000600254905090565b60006105b4848484610b64565b610667843361066285604051806060016040528060288152602001610fdf60289139600160008b73ffffffffffffffffffffffffffffffffffffffff1673ffffffffffffffffffffffffffffffffffffffff16815260200190815260200160002060003373ffffffffffffffffffffffffffffffffffffffff1673ffffffffffffffffffffffffffffffffffffffff16815260200190815260200160002054610e259092919063ffffffff16565b61096d565b9392505050565b6000600560009054906101000a900460ff16905090565b6000610720338461071b85600160003373ffffffffffffffffffffffffffffffffffffffff1673ffffffffffffffffffffffffffffffffffffffff16815260200190815260200160002060008973ffffffffffffffffffffffffffffffffffffffff1673ffffffffffffffffffffffffffffffffffffffff16815260200190815260200160002054610ee590919063ffffffff16565b61096d565b6001905092915050565b60008060008373ffffffffffffffffffffffffffffffffffffffff1673ffffffffffffffffffffffffffffffffffffffff168152602001908152602001600020549050919050565b606060048054600181600116156101000203166002900480601f01602080910402602001604051908101604052809291908181526020018280546001816001161561010002031660029004801561080a5780601f106107df5761010080835404028352916020019161080a565b820191906000526020600020905b8154815290600101906020018083116107ed57829003601f168201915b5050505050905090565b60006108c933846108c48560405180606001604052806025815260200161105060259139600160003373ffffffffffffffffffffffffffffffffffffffff1673ffffffffffffffffffffffffffffffffffffffff16815260200190815260200160002060008a73ffffffffffffffffffffffffffffffffffffffff1673ffffffffffffffffffffffffffffffffffffffff16815260200190815260200160002054610e259092919063ffffffff16565b61096d565b6001905092915050565b60006108e0338484610b64565b92915050565b6000600160008473ffffffffffffffffffffffffffffffffffffffff1673ffffffffffffffffffffffffffffffffffffffff16815260200190815260200160002060008373ffffffffffffffffffffffffffffffffffffffff1673ffffffffffffffffffffffffffffffffffffffff16815260200190815260200160002054905092915050565b600073ffffffffffffffffffffffffffffffffffffffff168373ffffffffffffffffffffffffffffffffffffffff1614156109f3576040517f08c379a000000000000000000000000000000000000000000000000000000000815260040180806020018281038252602481526020018061102c6024913960400191505060405180910390fd5b600073ffffffffffffffffffffffffffffffffffffffff168273ffffffffffffffffffffffffffffffffffffffff161415610a79576040517f08c379a0000000000000000000000000000000000000000000000000000000008152600401808060200182810382526022815260200180610f966022913960400191505060405180910390fd5b80600160008573ffffffffffffffffffffffffffffffffffffffff1673ffffffffffffffffffffffffffffffffffffffff16815260200190815260200160002060008473ffffffffffffffffffffffffffffffffffffffff1673ffffffffffffffffffffffffffffffffffffffff168152602001908152602001600020819055508173ffffffffffffffffffffffffffffffffffffffff168373ffffffffffffffffffffffffffffffffffffffff167f8c5be1e5ebec7d5bd14f71427d1e84f3dd0314c0f7b2291e5b200ac8c7c3b925836040518082815260200191505060405180910390a3505050565b600073ffffffffffffffffffffffffffffffffffffffff168373ffffffffffffffffffffffffffffffffffffffff161415610bea576040517f08c379a00000000000000000000000000000000000000000000000000000000081526004018080602001828103825260258152602001806110076025913960400191505060405180910390fd5b600073ffffffffffffffffffffffffffffffffffffffff168273ffffffffffffffffffffffffffffffffffffffff161415610c70576040517f08c379a0000000000000000000000000000000000000000000000000000000008152600401808060200182810382526023815260200180610f736023913960400191505060405180910390fd5b610c7b838383610f6d565b610ce681604051806060016040528060278152602001610fb8602791396000808773ffffffffffffffffffffffffffffffffffffffff1673ffffffffffffffffffffffffffffffffffffffff16815260200190815260200160002054610e259092919063ffffffff16565b6000808573ffffffffffffffffffffffffffffffffffffffff1673ffffffffffffffffffffffffffffffffffffffff16815260200190815260200160002081905550610d79816000808573ffffffffffffffffffffffffffffffffffffffff1673ffffffffffffffffffffffffffffffffffffffff16815260200190815260200160002054610ee590919063ffffffff16565b6000808473ffffffffffffffffffffffffffffffffffffffff1673ffffffffffffffffffffffffffffffffffffffff168152602001908152602001600020819055508173ffffffffffffffffffffffffffffffffffffffff168373ffffffffffffffffffffffffffffffffffffffff167fddf252ad1be2c89b69c2b068fc378daa952ba7f163c4a11628f55a4df523b3ef836040518082815260200191505060405180910390a3505050565b6000838311158290610ed2576040517f08c379a00000000000000000000000000000000000000000000000000000000081526004018080602001828103825283818151815260200191508051906020019080838360005b83811015610e97578082015181840152602081019050610e7c565b50505050905090810190601f168015610ec45780820380516001836020036101000a031916815260200191505b509250505060405180910390fd5b5060008385039050809150509392505050565b600080828401905083811015610f63576040517f08c379a000000000000000000000000000000000000000000000000000000000815260040180806020018281038252601b8152602001807f536166654d6174683a206164646974696f6e206f766572666c6f77000000000081525060200191505060405180910390fd5b8091505092915050565b50505056fe45524332303a207472616e7366657220746f20746865207a65726f206164647265737345524332303a20617070726f766520746f20746865207a65726f206164647265737345524332303a207472616e7366657220616d6f756e742065786563656564732062616c616e636545524332303a207472616e7366657220616d6f756e74206578636565647320616c6c6f77616e636545524332303a207472616e736665722066726f6d20746865207a65726f206164647265737345524332303a20617070726f76652066726f6d20746865207a65726f206164647265737345524332303a2064656372656174656420616c6c6f77616e63652062656c6f77207a65726fa2646970667358221220136f3e6430a03abcc9a7dc819aeb6d4e962149a7666e5d40992b8dc6e0322e6664736f6c634300060b0033a26469706673582212207089fa2d312c741b9c3e6d079a898a993ec3829b15fbd39364b1f3f577c71f3764736f6c634300060b0033",
  "immutableReferences": {},
  "source": "\n// SPDX-License-Identifier: MIT\npragma solidity >=0.4.21 <0.7.0;\npragma experimental ABIEncoderV2;\n\nimport \"./ERC20.sol\";\ncontract ERC20Factory {\n    struct Token {\n        string name;\n        string symbol;\n        uint8 decimal;\n        uint256 totalSupply;\n        address creator;\n        address addr;\n    }\n\n    mapping(address => address[]) public created;\n    Token[] public tokens;\n\n    function createERC20(\n        uint256 initialAmount,\n        string memory name,\n        uint8 decimal,\n        string memory symbol\n    ) public returns (address) {\n        ERC20 newToken = (new ERC20(name, symbol, initialAmount, decimal));\n        created[msg.sender].push(address(newToken));\n        tokens.push(Token(name, symbol, decimal, initialAmount, msg.sender, address(newToken)));\n        newToken.transfer(msg.sender, initialAmount);\n        return address(newToken);\n    }\n\n    function _codeAt(address addr)\n        internal\n        view\n        returns (bytes memory outputCode)\n    {\n        assembly {\n            // solhint-disable-line no-inline-assembly\n            let size := extcodesize(addr)\n            outputCode := mload(0x40)\n            mstore(\n                0x40,\n                add(outputCode, and(add(add(size, 0x20), 0x1f), not(0x1f)))\n            )\n            mstore(outputCode, size)\n            extcodecopy(addr, add(outputCode, 0x20), 0, size)\n        }\n    }\n\n    function getCreated(address addr) public view returns(address[] memory) {\n        return created[addr];\n    }\n    function getTokens() public view returns(Token[] memory){\n        return tokens;\n    }\n\n}\n",
  "sourcePath": "/Users/shibaoxu/dev/learning/dapp-sample/contracts/contracts/token/ERC20Factory.sol",
  "compiler": {
    "name": "solc",
    "version": "0.6.11+commit.5ef660b1.Emscripten.clang"
  },
  "schemaVersion": "3.2.2",
  "updatedAt": "2020-07-24T04:27:45.072Z",
  "networkType": "ethereum",
  "devdoc": {
    "kind": "dev",
    "methods": {},
    "version": 1
  },
  "userdoc": {
    "kind": "user",
    "methods": {},
    "version": 1
  }
}